{
  "_format": "hh-sol-artifact-1",
  "contractName": "PaddyProcurement",
  "sourceName": "contracts/PaddyProcurement.sol",
  "abi": [
    {
      "inputs": [],
      "stateMutability": "nonpayable",
      "type": "constructor"
    },
    {
      "anonymous": false,
      "inputs": [
        {
          "indexed": true,
          "internalType": "address",
          "name": "farmer",
          "type": "address"
        },
        {
          "indexed": true,
          "internalType": "address",
          "name": "miller",
          "type": "address"
        },
        {
          "indexed": false,
          "internalType": "bytes32",
          "name": "orderId",
          "type": "bytes32"
        }
      ],
      "name": "MillerAssigned",
      "type": "event"
    },
    {
      "anonymous": false,
      "inputs": [
        {
          "indexed": true,
          "internalType": "address",
          "name": "farmer",
          "type": "address"
        },
        {
          "indexed": true,
          "internalType": "address",
          "name": "fci",
          "type": "address"
        },
        {
          "indexed": false,
          "internalType": "uint256",
          "name": "quantity",
          "type": "uint256"
        },
        {
          "indexed": false,
          "internalType": "uint256",
          "name": "dateTime",
          "type": "uint256"
        },
        {
          "indexed": false,
          "internalType": "enum PaddyProcurement.OrderStatus",
          "name": "status",
          "type": "uint8"
        },
        {
          "indexed": false,
          "internalType": "bytes32",
          "name": "orderId",
          "type": "bytes32"
        }
      ],
      "name": "OrderCreated",
      "type": "event"
    },
    {
      "anonymous": false,
      "inputs": [
        {
          "indexed": true,
          "internalType": "address",
          "name": "fci",
          "type": "address"
        },
        {
          "indexed": true,
          "internalType": "address",
          "name": "farmer",
          "type": "address"
        },
        {
          "indexed": false,
          "internalType": "uint256",
          "name": "amount",
          "type": "uint256"
        },
        {
          "indexed": false,
          "internalType": "bytes32",
          "name": "orderId",
          "type": "bytes32"
        }
      ],
      "name": "PaymentCompleted",
      "type": "event"
    },
    {
      "anonymous": false,
      "inputs": [
        {
          "indexed": true,
          "internalType": "address",
          "name": "fci",
          "type": "address"
        },
        {
          "indexed": true,
          "internalType": "address",
          "name": "farmer",
          "type": "address"
        },
        {
          "indexed": false,
          "internalType": "bytes32",
          "name": "orderId",
          "type": "bytes32"
        }
      ],
      "name": "QualityAssessed",
      "type": "event"
    },
    {
      "inputs": [
        {
          "internalType": "address",
          "name": "_farmer",
          "type": "address"
        },
        {
          "internalType": "bytes32",
          "name": "_orderId",
          "type": "bytes32"
        },
        {
          "internalType": "uint256",
          "name": "_qualityValue",
          "type": "uint256"
        }
      ],
      "name": "assessQuality",
      "outputs": [],
      "stateMutability": "nonpayable",
      "type": "function"
    },
    {
      "inputs": [
        {
          "internalType": "address",
          "name": "_farmer",
          "type": "address"
        },
        {
          "internalType": "bytes32",
          "name": "_orderId",
          "type": "bytes32"
        },
        {
          "internalType": "address",
          "name": "_selectedMiller",
          "type": "address"
        }
      ],
      "name": "assignMiller",
      "outputs": [],
      "stateMutability": "nonpayable",
      "type": "function"
    },
    {
      "inputs": [
        {
          "internalType": "address",
          "name": "_farmer",
          "type": "address"
        },
        {
          "internalType": "bytes32",
          "name": "_orderId",
          "type": "bytes32"
        },
        {
          "internalType": "uint256",
          "name": "_quantity",
          "type": "uint256"
        },
        {
          "internalType": "uint256",
          "name": "_qualityValue",
          "type": "uint256"
        }
      ],
      "name": "completePayment",
      "outputs": [],
      "stateMutability": "payable",
      "type": "function"
    },
    {
      "inputs": [
        {
          "internalType": "address",
          "name": "_farmer",
          "type": "address"
        },
        {
          "internalType": "bytes32",
          "name": "_orderId",
          "type": "bytes32"
        }
      ],
      "name": "confirmDelivery",
      "outputs": [],
      "stateMutability": "nonpayable",
      "type": "function"
    },
    {
      "inputs": [
        {
          "internalType": "address",
          "name": "_fci",
          "type": "address"
        },
        {
          "internalType": "uint256",
          "name": "_quantity",
          "type": "uint256"
        }
      ],
      "name": "createOrder",
      "outputs": [],
      "stateMutability": "nonpayable",
      "type": "function"
    },
    {
      "inputs": [
        {
          "internalType": "uint256",
          "name": "",
          "type": "uint256"
        }
      ],
      "name": "farmersList",
      "outputs": [
        {
          "internalType": "address",
          "name": "",
          "type": "address"
        }
      ],
      "stateMutability": "view",
      "type": "function"
    },
    {
      "inputs": [],
      "name": "fciAddress",
      "outputs": [
        {
          "internalType": "address",
          "name": "",
          "type": "address"
        }
      ],
      "stateMutability": "view",
      "type": "function"
    },
    {
      "inputs": [
        {
          "internalType": "address",
          "name": "_miller",
          "type": "address"
        }
      ],
      "name": "getAcceptedOrdersByMiller",
      "outputs": [
        {
          "components": [
            {
              "internalType": "address",
              "name": "farmer",
              "type": "address"
            },
            {
              "internalType": "address",
              "name": "fci",
              "type": "address"
            },
            {
              "internalType": "uint256",
              "name": "quantity",
              "type": "uint256"
            },
            {
              "internalType": "uint256",
              "name": "dateTime",
              "type": "uint256"
            },
            {
              "internalType": "enum PaddyProcurement.OrderStatus",
              "name": "status",
              "type": "uint8"
            },
            {
              "internalType": "address",
              "name": "assignedMiller",
              "type": "address"
            },
            {
              "internalType": "bool",
              "name": "qualityAssessed",
              "type": "bool"
            },
            {
              "internalType": "bool",
              "name": "paymentCompleted",
              "type": "bool"
            },
            {
              "internalType": "bool",
              "name": "deliveredToMiller",
              "type": "bool"
            },
            {
              "internalType": "bytes32",
              "name": "orderId",
              "type": "bytes32"
            },
            {
              "internalType": "uint256",
              "name": "assessQualityValue",
              "type": "uint256"
            },
            {
              "internalType": "uint256",
              "name": "deliveryConfirmationDate",
              "type": "uint256"
            }
          ],
          "internalType": "struct PaddyProcurement.Order[]",
          "name": "",
          "type": "tuple[]"
        }
      ],
      "stateMutability": "view",
      "type": "function"
    },
    {
      "inputs": [],
      "name": "getAllTransactionsOfFCI",
      "outputs": [
        {
          "components": [
            {
              "internalType": "address",
              "name": "farmer",
              "type": "address"
            },
            {
              "internalType": "address",
              "name": "fci",
              "type": "address"
            },
            {
              "internalType": "uint256",
              "name": "quantity",
              "type": "uint256"
            },
            {
              "internalType": "uint256",
              "name": "dateTime",
              "type": "uint256"
            },
            {
              "internalType": "enum PaddyProcurement.OrderStatus",
              "name": "status",
              "type": "uint8"
            },
            {
              "internalType": "address",
              "name": "assignedMiller",
              "type": "address"
            },
            {
              "internalType": "bool",
              "name": "qualityAssessed",
              "type": "bool"
            },
            {
              "internalType": "bool",
              "name": "paymentCompleted",
              "type": "bool"
            },
            {
              "internalType": "bool",
              "name": "deliveredToMiller",
              "type": "bool"
            },
            {
              "internalType": "bytes32",
              "name": "orderId",
              "type": "bytes32"
            },
            {
              "internalType": "uint256",
              "name": "assessQualityValue",
              "type": "uint256"
            },
            {
              "internalType": "uint256",
              "name": "deliveryConfirmationDate",
              "type": "uint256"
            }
          ],
          "internalType": "struct PaddyProcurement.Order[]",
          "name": "",
          "type": "tuple[]"
        }
      ],
      "stateMutability": "view",
      "type": "function"
    },
    {
      "inputs": [],
      "name": "getFCIAddress",
      "outputs": [
        {
          "internalType": "address",
          "name": "",
          "type": "address"
        }
      ],
      "stateMutability": "view",
      "type": "function"
    },
    {
      "inputs": [
        {
          "internalType": "address",
          "name": "_miller",
          "type": "address"
        }
      ],
      "name": "getMillerCapacity",
      "outputs": [
        {
          "internalType": "uint256",
          "name": "",
          "type": "uint256"
        },
        {
          "internalType": "uint256",
          "name": "",
          "type": "uint256"
        }
      ],
      "stateMutability": "view",
      "type": "function"
    },
    {
      "inputs": [
        {
          "internalType": "address",
          "name": "_farmer",
          "type": "address"
        }
      ],
      "name": "getOrdersByFarmer",
      "outputs": [
        {
          "components": [
            {
              "internalType": "address",
              "name": "farmer",
              "type": "address"
            },
            {
              "internalType": "address",
              "name": "fci",
              "type": "address"
            },
            {
              "internalType": "uint256",
              "name": "quantity",
              "type": "uint256"
            },
            {
              "internalType": "uint256",
              "name": "dateTime",
              "type": "uint256"
            },
            {
              "internalType": "enum PaddyProcurement.OrderStatus",
              "name": "status",
              "type": "uint8"
            },
            {
              "internalType": "address",
              "name": "assignedMiller",
              "type": "address"
            },
            {
              "internalType": "bool",
              "name": "qualityAssessed",
              "type": "bool"
            },
            {
              "internalType": "bool",
              "name": "paymentCompleted",
              "type": "bool"
            },
            {
              "internalType": "bool",
              "name": "deliveredToMiller",
              "type": "bool"
            },
            {
              "internalType": "bytes32",
              "name": "orderId",
              "type": "bytes32"
            },
            {
              "internalType": "uint256",
              "name": "assessQualityValue",
              "type": "uint256"
            },
            {
              "internalType": "uint256",
              "name": "deliveryConfirmationDate",
              "type": "uint256"
            }
          ],
          "internalType": "struct PaddyProcurement.Order[]",
          "name": "",
          "type": "tuple[]"
        }
      ],
      "stateMutability": "view",
      "type": "function"
    },
    {
      "inputs": [
        {
          "internalType": "address",
          "name": "_miller",
          "type": "address"
        }
      ],
      "name": "getPendingOrdersByMiller",
      "outputs": [
        {
          "components": [
            {
              "internalType": "address",
              "name": "farmer",
              "type": "address"
            },
            {
              "internalType": "address",
              "name": "fci",
              "type": "address"
            },
            {
              "internalType": "uint256",
              "name": "quantity",
              "type": "uint256"
            },
            {
              "internalType": "uint256",
              "name": "dateTime",
              "type": "uint256"
            },
            {
              "internalType": "enum PaddyProcurement.OrderStatus",
              "name": "status",
              "type": "uint8"
            },
            {
              "internalType": "address",
              "name": "assignedMiller",
              "type": "address"
            },
            {
              "internalType": "bool",
              "name": "qualityAssessed",
              "type": "bool"
            },
            {
              "internalType": "bool",
              "name": "paymentCompleted",
              "type": "bool"
            },
            {
              "internalType": "bool",
              "name": "deliveredToMiller",
              "type": "bool"
            },
            {
              "internalType": "bytes32",
              "name": "orderId",
              "type": "bytes32"
            },
            {
              "internalType": "uint256",
              "name": "assessQualityValue",
              "type": "uint256"
            },
            {
              "internalType": "uint256",
              "name": "deliveryConfirmationDate",
              "type": "uint256"
            }
          ],
          "internalType": "struct PaddyProcurement.Order[]",
          "name": "",
          "type": "tuple[]"
        }
      ],
      "stateMutability": "view",
      "type": "function"
    },
    {
      "inputs": [
        {
          "internalType": "address",
          "name": "",
          "type": "address"
        }
      ],
      "name": "isFCI",
      "outputs": [
        {
          "internalType": "bool",
          "name": "",
          "type": "bool"
        }
      ],
      "stateMutability": "view",
      "type": "function"
    },
    {
      "inputs": [
        {
          "internalType": "address",
          "name": "",
          "type": "address"
        }
      ],
      "name": "isFarmer",
      "outputs": [
        {
          "internalType": "bool",
          "name": "",
          "type": "bool"
        }
      ],
      "stateMutability": "view",
      "type": "function"
    },
    {
      "inputs": [
        {
          "internalType": "address",
          "name": "",
          "type": "address"
        }
      ],
      "name": "isMiller",
      "outputs": [
        {
          "internalType": "bool",
          "name": "",
          "type": "bool"
        }
      ],
      "stateMutability": "view",
      "type": "function"
    },
    {
      "inputs": [
        {
          "internalType": "address",
          "name": "",
          "type": "address"
        }
      ],
      "name": "millerInventories",
      "outputs": [
        {
          "internalType": "uint256",
          "name": "maxStorageCapacity",
          "type": "uint256"
        },
        {
          "internalType": "uint256",
          "name": "targetQuantity",
          "type": "uint256"
        },
        {
          "internalType": "uint256",
          "name": "availableCapacity",
          "type": "uint256"
        }
      ],
      "stateMutability": "view",
      "type": "function"
    },
    {
      "inputs": [
        {
          "internalType": "uint256",
          "name": "",
          "type": "uint256"
        }
      ],
      "name": "millersList",
      "outputs": [
        {
          "internalType": "address",
          "name": "",
          "type": "address"
        }
      ],
      "stateMutability": "view",
      "type": "function"
    },
    {
      "inputs": [
        {
          "internalType": "bytes32",
          "name": "",
          "type": "bytes32"
        }
      ],
      "name": "orderExists",
      "outputs": [
        {
          "internalType": "bool",
          "name": "",
          "type": "bool"
        }
      ],
      "stateMutability": "view",
      "type": "function"
    },
    {
      "inputs": [
        {
          "internalType": "address",
          "name": "",
          "type": "address"
        },
        {
          "internalType": "uint256",
          "name": "",
          "type": "uint256"
        }
      ],
      "name": "ordersOfFarmer",
      "outputs": [
        {
          "internalType": "address",
          "name": "farmer",
          "type": "address"
        },
        {
          "internalType": "address",
          "name": "fci",
          "type": "address"
        },
        {
          "internalType": "uint256",
          "name": "quantity",
          "type": "uint256"
        },
        {
          "internalType": "uint256",
          "name": "dateTime",
          "type": "uint256"
        },
        {
          "internalType": "enum PaddyProcurement.OrderStatus",
          "name": "status",
          "type": "uint8"
        },
        {
          "internalType": "address",
          "name": "assignedMiller",
          "type": "address"
        },
        {
          "internalType": "bool",
          "name": "qualityAssessed",
          "type": "bool"
        },
        {
          "internalType": "bool",
          "name": "paymentCompleted",
          "type": "bool"
        },
        {
          "internalType": "bool",
          "name": "deliveredToMiller",
          "type": "bool"
        },
        {
          "internalType": "bytes32",
          "name": "orderId",
          "type": "bytes32"
        },
        {
          "internalType": "uint256",
          "name": "assessQualityValue",
          "type": "uint256"
        },
        {
          "internalType": "uint256",
          "name": "deliveryConfirmationDate",
          "type": "uint256"
        }
      ],
      "stateMutability": "view",
      "type": "function"
    },
    {
      "inputs": [
        {
          "internalType": "address",
          "name": "",
          "type": "address"
        },
        {
          "internalType": "uint256",
          "name": "",
          "type": "uint256"
        }
      ],
      "name": "ordersOfMiller",
      "outputs": [
        {
          "internalType": "address",
          "name": "farmer",
          "type": "address"
        },
        {
          "internalType": "address",
          "name": "fci",
          "type": "address"
        },
        {
          "internalType": "uint256",
          "name": "quantity",
          "type": "uint256"
        },
        {
          "internalType": "uint256",
          "name": "dateTime",
          "type": "uint256"
        },
        {
          "internalType": "enum PaddyProcurement.OrderStatus",
          "name": "status",
          "type": "uint8"
        },
        {
          "internalType": "address",
          "name": "assignedMiller",
          "type": "address"
        },
        {
          "internalType": "bool",
          "name": "qualityAssessed",
          "type": "bool"
        },
        {
          "internalType": "bool",
          "name": "paymentCompleted",
          "type": "bool"
        },
        {
          "internalType": "bool",
          "name": "deliveredToMiller",
          "type": "bool"
        },
        {
          "internalType": "bytes32",
          "name": "orderId",
          "type": "bytes32"
        },
        {
          "internalType": "uint256",
          "name": "assessQualityValue",
          "type": "uint256"
        },
        {
          "internalType": "uint256",
          "name": "deliveryConfirmationDate",
          "type": "uint256"
        }
      ],
      "stateMutability": "view",
      "type": "function"
    },
    {
      "inputs": [
        {
          "internalType": "address",
          "name": "_farmer",
          "type": "address"
        }
      ],
      "name": "registerAsFarmer",
      "outputs": [],
      "stateMutability": "nonpayable",
      "type": "function"
    },
    {
      "inputs": [
        {
          "internalType": "address",
          "name": "_miller",
          "type": "address"
        },
        {
          "internalType": "uint256",
          "name": "_maxStorageCapacity",
          "type": "uint256"
        }
      ],
      "name": "registerAsMiller",
      "outputs": [],
      "stateMutability": "nonpayable",
      "type": "function"
    },
    {
      "inputs": [
        {
          "internalType": "address",
          "name": "_fciAddress",
          "type": "address"
        }
      ],
      "name": "registerFCIAddress",
      "outputs": [],
      "stateMutability": "nonpayable",
      "type": "function"
    },
    {
      "inputs": [
        {
          "internalType": "uint256",
          "name": "_targetQuantity",
          "type": "uint256"
        }
      ],
      "name": "setTargetQuantity",
      "outputs": [],
      "stateMutability": "nonpayable",
      "type": "function"
    },
    {
      "inputs": [
        {
          "internalType": "bytes32",
          "name": "_orderId",
          "type": "bytes32"
        }
      ],
      "name": "startDelivery",
      "outputs": [],
      "stateMutability": "nonpayable",
      "type": "function"
    },
    {
      "inputs": [
        {
          "internalType": "address",
          "name": "",
          "type": "address"
        },
        {
          "internalType": "uint256",
          "name": "",
          "type": "uint256"
        }
      ],
      "name": "transactionsOfFCI",
      "outputs": [
        {
          "internalType": "address",
          "name": "farmer",
          "type": "address"
        },
        {
          "internalType": "address",
          "name": "fci",
          "type": "address"
        },
        {
          "internalType": "uint256",
          "name": "quantity",
          "type": "uint256"
        },
        {
          "internalType": "uint256",
          "name": "dateTime",
          "type": "uint256"
        },
        {
          "internalType": "enum PaddyProcurement.OrderStatus",
          "name": "status",
          "type": "uint8"
        },
        {
          "internalType": "address",
          "name": "assignedMiller",
          "type": "address"
        },
        {
          "internalType": "bool",
          "name": "qualityAssessed",
          "type": "bool"
        },
        {
          "internalType": "bool",
          "name": "paymentCompleted",
          "type": "bool"
        },
        {
          "internalType": "bool",
          "name": "deliveredToMiller",
          "type": "bool"
        },
        {
          "internalType": "bytes32",
          "name": "orderId",
          "type": "bytes32"
        },
        {
          "internalType": "uint256",
          "name": "assessQualityValue",
          "type": "uint256"
        },
        {
          "internalType": "uint256",
          "name": "deliveryConfirmationDate",
          "type": "uint256"
        }
      ],
      "stateMutability": "view",
      "type": "function"
    }
  ],
  "bytecode": "0x60806040523480156200001157600080fd5b50620000586040518060400160405280601a81526020017f50616464792050726f637572656d656e74204465706c6f7965640000000000008152506200005e60201b60201c565b62000258565b620000fe8160405160240162000075919062000205565b6040516020818303038152906040527f41304fac000000000000000000000000000000000000000000000000000000007bffffffffffffffffffffffffffffffffffffffffffffffffffffffff19166020820180517bffffffffffffffffffffffffffffffffffffffffffffffffffffffff83818316178352505050506200010160201b60201c565b50565b6200012781620001226200012a60201b62004a46176200014b60201b60201c565b60201c565b50565b60006a636f6e736f6c652e6c6f679050600080835160208501845afa505050565b6200015f60201b62004a6717819050919050565b6200016962000229565b565b600081519050919050565b600082825260208201905092915050565b60005b83811015620001a75780820151818401526020810190506200018a565b60008484015250505050565b6000601f19601f8301169050919050565b6000620001d1826200016b565b620001dd818562000176565b9350620001ef81856020860162000187565b620001fa81620001b3565b840191505092915050565b60006020820190508181036000830152620002218184620001c4565b905092915050565b7f4e487b7100000000000000000000000000000000000000000000000000000000600052605160045260246000fd5b615e3a80620002686000396000f3fe60806040526004361061019b5760003560e01c8063978a22a6116100ec578063b94290691161008a578063f1d51c1811610064578063f1d51c181461066c578063f5cbf5c9146106a9578063fea7d77b146106d4578063ffb4a7cb146106fd5761019b565b8063b9429069146105be578063be9de1d6146105fb578063de1a673e146106435761019b565b80639debd02b116100c65780639debd02b146104dc578063a800c50a14610519578063ad96535714610556578063b66b85ca1461057f5761019b565b8063978a22a61461042e5780639c110fb7146104575780639cdc3f4a146104945761019b565b806346a1d4011161015957806379b142e81161013357806379b142e8146103835780637b96f98b146103c057806384b5e5b0146103e957806386404c87146104055761019b565b806346a1d401146102e95780636c16b545146103125780636d9027c81461033b5761019b565b80629822c2146101a0578063175493f0146101dd578063185b4b301461021b57806320388ea6146102465780632a4d7f36146102835780632cb77e9f146102ac575b600080fd5b3480156101ac57600080fd5b506101c760048036038101906101c29190614b92565b610728565b6040516101d49190614bda565b60405180910390f35b3480156101e957600080fd5b5061020460048036038101906101ff9190614b92565b610748565b604051610212929190614c0e565b60405180910390f35b34801561022757600080fd5b506102306107cb565b60405161023d9190614e9a565b60405180910390f35b34801561025257600080fd5b5061026d60048036038101906102689190614b92565b610ad7565b60405161027a9190614e9a565b60405180910390f35b34801561028f57600080fd5b506102aa60048036038101906102a59190614ee8565b6110d4565b005b3480156102b857600080fd5b506102d360048036038101906102ce9190614f3b565b611888565b6040516102e09190614bda565b60405180910390f35b3480156102f557600080fd5b50610310600480360381019061030b9190614f94565b6118a8565b005b34801561031e57600080fd5b5061033960048036038101906103349190614fe7565b611d64565b005b34801561034757600080fd5b50610362600480360381019061035d9190614fe7565b61251b565b60405161037a9c9b9a99989796959493929190615054565b60405180910390f35b34801561038f57600080fd5b506103aa60048036038101906103a5919061510e565b61262c565b6040516103b7919061513b565b60405180910390f35b3480156103cc57600080fd5b506103e760048036038101906103e29190614fe7565b61266b565b005b61040360048036038101906103fe9190615156565b6128aa565b005b34801561041157600080fd5b5061042c60048036038101906104279190614f3b565b61308c565b005b34801561043a57600080fd5b5061045560048036038101906104509190614b92565b61354d565b005b34801561046357600080fd5b5061047e60048036038101906104799190614b92565b613744565b60405161048b9190614e9a565b60405180910390f35b3480156104a057600080fd5b506104bb60048036038101906104b69190614fe7565b613a85565b6040516104d39c9b9a99989796959493929190615054565b60405180910390f35b3480156104e857600080fd5b5061050360048036038101906104fe9190614b92565b613b96565b6040516105109190614e9a565b60405180910390f35b34801561052557600080fd5b50610540600480360381019061053b9190614b92565b613ed7565b60405161054d9190614bda565b60405180910390f35b34801561056257600080fd5b5061057d600480360381019061057891906151bd565b613ef7565b005b34801561058b57600080fd5b506105a660048036038101906105a19190614b92565b61456e565b6040516105b5939291906151fd565b60405180910390f35b3480156105ca57600080fd5b506105e560048036038101906105e09190614b92565b614598565b6040516105f29190614bda565b60405180910390f35b34801561060757600080fd5b50610622600480360381019061061d9190614fe7565b6145b8565b60405161063a9c9b9a99989796959493929190615054565b60405180910390f35b34801561064f57600080fd5b5061066a60048036038101906106659190614b92565b6146c9565b005b34801561067857600080fd5b50610693600480360381019061068e919061510e565b61489d565b6040516106a0919061513b565b60405180910390f35b3480156106b557600080fd5b506106be6148dc565b6040516106cb919061513b565b60405180910390f35b3480156106e057600080fd5b506106fb60048036038101906106f6919061510e565b614900565b005b34801561070957600080fd5b50610712614a1d565b60405161071f919061513b565b60405180910390f35b60036020528060005260406000206000915054906101000a900460ff1681565b6000806000600960008573ffffffffffffffffffffffffffffffffffffffff1673ffffffffffffffffffffffffffffffffffffffff16815260200190815260200160002060405180606001604052908160008201548152602001600182015481526020016002820154815250509050806020015181604001519250925050915091565b606060008054906101000a900473ffffffffffffffffffffffffffffffffffffffff1673ffffffffffffffffffffffffffffffffffffffff163373ffffffffffffffffffffffffffffffffffffffff161461085b576040517f08c379a0000000000000000000000000000000000000000000000000000000008152600401610852906152b7565b60405180910390fd5b600a60008060009054906101000a900473ffffffffffffffffffffffffffffffffffffffff1673ffffffffffffffffffffffffffffffffffffffff1673ffffffffffffffffffffffffffffffffffffffff168152602001908152602001600020805480602002602001604051908101604052809291908181526020016000905b82821015610ace5783829060005260206000209060080201604051806101800160405290816000820160009054906101000a900473ffffffffffffffffffffffffffffffffffffffff1673ffffffffffffffffffffffffffffffffffffffff1673ffffffffffffffffffffffffffffffffffffffff1681526020016001820160009054906101000a900473ffffffffffffffffffffffffffffffffffffffff1673ffffffffffffffffffffffffffffffffffffffff1673ffffffffffffffffffffffffffffffffffffffff16815260200160028201548152602001600382015481526020016004820160009054906101000a900460ff1660058111156109e4576109e3614c81565b5b60058111156109f6576109f5614c81565b5b81526020016004820160019054906101000a900473ffffffffffffffffffffffffffffffffffffffff1673ffffffffffffffffffffffffffffffffffffffff1673ffffffffffffffffffffffffffffffffffffffff1681526020016004820160159054906101000a900460ff161515151581526020016004820160169054906101000a900460ff161515151581526020016004820160179054906101000a900460ff161515151581526020016005820154815260200160068201548152602001600782015481525050815260200190600101906108db565b50505050905090565b606060008054906101000a900473ffffffffffffffffffffffffffffffffffffffff1673ffffffffffffffffffffffffffffffffffffffff163373ffffffffffffffffffffffffffffffffffffffff161480610b7c5750600360003373ffffffffffffffffffffffffffffffffffffffff1673ffffffffffffffffffffffffffffffffffffffff16815260200190815260200160002060009054906101000a900460ff165b610bbb576040517f08c379a0000000000000000000000000000000000000000000000000000000008152600401610bb290615349565b60405180910390fd5b600360008373ffffffffffffffffffffffffffffffffffffffff1673ffffffffffffffffffffffffffffffffffffffff16815260200190815260200160002060009054906101000a900460ff16610c47576040517f08c379a0000000000000000000000000000000000000000000000000000000008152600401610c3e906153b5565b60405180910390fd5b6000600860008473ffffffffffffffffffffffffffffffffffffffff1673ffffffffffffffffffffffffffffffffffffffff168152602001908152602001600020805480602002602001604051908101604052809291908181526020016000905b82821015610e9b5783829060005260206000209060080201604051806101800160405290816000820160009054906101000a900473ffffffffffffffffffffffffffffffffffffffff1673ffffffffffffffffffffffffffffffffffffffff1673ffffffffffffffffffffffffffffffffffffffff1681526020016001820160009054906101000a900473ffffffffffffffffffffffffffffffffffffffff1673ffffffffffffffffffffffffffffffffffffffff1673ffffffffffffffffffffffffffffffffffffffff16815260200160028201548152602001600382015481526020016004820160009054906101000a900460ff166005811115610db157610db0614c81565b5b6005811115610dc357610dc2614c81565b5b81526020016004820160019054906101000a900473ffffffffffffffffffffffffffffffffffffffff1673ffffffffffffffffffffffffffffffffffffffff1673ffffffffffffffffffffffffffffffffffffffff1681526020016004820160159054906101000a900460ff161515151581526020016004820160169054906101000a900460ff161515151581526020016004820160179054906101000a900460ff16151515158152602001600582015481526020016006820154815260200160078201548152505081526020019060010190610ca8565b5050505090506000805b8251811015610f6b578473ffffffffffffffffffffffffffffffffffffffff16838281518110610ed857610ed76153d5565b5b602002602001015160a0015173ffffffffffffffffffffffffffffffffffffffff16148015610f4a575060046005811115610f1657610f15614c81565b5b838281518110610f2957610f286153d5565b5b6020026020010151608001516005811115610f4757610f46614c81565b5b14155b15610f5e578180610f5a90615433565b9250505b8080600101915050610ea5565b5060008167ffffffffffffffff811115610f8857610f8761547b565b5b604051908082528060200260200182016040528015610fc157816020015b610fae614a71565b815260200190600190039081610fa65790505b5090506000805b84518110156110c7578673ffffffffffffffffffffffffffffffffffffffff16858281518110610ffb57610ffa6153d5565b5b602002602001015160a0015173ffffffffffffffffffffffffffffffffffffffff1614801561106d57506004600581111561103957611038614c81565b5b85828151811061104c5761104b6153d5565b5b602002602001015160800151600581111561106a57611069614c81565b5b14155b156110ba57848181518110611085576110846153d5565b5b60200260200101518383815181106110a05761109f6153d5565b5b602002602001018190525081806110b690615433565b9250505b8080600101915050610fc8565b5081945050505050919050565b60008054906101000a900473ffffffffffffffffffffffffffffffffffffffff1673ffffffffffffffffffffffffffffffffffffffff163373ffffffffffffffffffffffffffffffffffffffff1614611162576040517f08c379a0000000000000000000000000000000000000000000000000000000008152600401611159906152b7565b60405180910390fd5b600360008273ffffffffffffffffffffffffffffffffffffffff1673ffffffffffffffffffffffffffffffffffffffff16815260200190815260200160002060009054906101000a900460ff166111ee576040517f08c379a00000000000000000000000000000000000000000000000000000000081526004016111e5906154f6565b60405180910390fd5b6000600760008573ffffffffffffffffffffffffffffffffffffffff1673ffffffffffffffffffffffffffffffffffffffff168152602001908152602001600020905060005b81805490508110156118815783828281548110611254576112536153d5565b5b9060005260206000209060080201600501541480156112c857506001600581111561128257611281614c81565b5b828281548110611295576112946153d5565b5b906000526020600020906008020160040160009054906101000a900460ff1660058111156112c6576112c5614c81565b5b145b1561187457620546008282815481106112e4576112e36153d5565b5b9060005260206000209060080201600301546113009190615516565b421115611342576040517f08c379a0000000000000000000000000000000000000000000000000000000008152600401611339906155bc565b60405180910390fd5b82828281548110611356576113556153d5565b5b906000526020600020906008020160040160016101000a81548173ffffffffffffffffffffffffffffffffffffffff021916908373ffffffffffffffffffffffffffffffffffffffff16021790555060028282815481106113ba576113b96153d5565b5b906000526020600020906008020160040160006101000a81548160ff021916908360058111156113ed576113ec614c81565b5b0217905550600860008473ffffffffffffffffffffffffffffffffffffffff1673ffffffffffffffffffffffffffffffffffffffff168152602001908152602001600020828281548110611444576114436153d5565b5b906000526020600020906008020190806001815401808255809150506001900390600052602060002090600802016000909190919091506000820160009054906101000a900473ffffffffffffffffffffffffffffffffffffffff168160000160006101000a81548173ffffffffffffffffffffffffffffffffffffffff021916908373ffffffffffffffffffffffffffffffffffffffff1602179055506001820160009054906101000a900473ffffffffffffffffffffffffffffffffffffffff168160010160006101000a81548173ffffffffffffffffffffffffffffffffffffffff021916908373ffffffffffffffffffffffffffffffffffffffff16021790555060028201548160020155600382015481600301556004820160009054906101000a900460ff168160040160006101000a81548160ff0219169083600581111561159557611594614c81565b5b02179055506004820160019054906101000a900473ffffffffffffffffffffffffffffffffffffffff168160040160016101000a81548173ffffffffffffffffffffffffffffffffffffffff021916908373ffffffffffffffffffffffffffffffffffffffff1602179055506004820160159054906101000a900460ff168160040160156101000a81548160ff0219169083151502179055506004820160169054906101000a900460ff168160040160166101000a81548160ff0219169083151502179055506004820160179054906101000a900460ff168160040160176101000a81548160ff02191690831515021790555060058201548160050155600682015481600601556007820154816007015550506000600a60008060009054906101000a900473ffffffffffffffffffffffffffffffffffffffff1673ffffffffffffffffffffffffffffffffffffffff1673ffffffffffffffffffffffffffffffffffffffff168152602001908152602001600020905060005b8180549050811015611808578582828154811061172f5761172e6153d5565b5b906000526020600020906008020160050154036117fb578482828154811061175a576117596153d5565b5b906000526020600020906008020160040160016101000a81548173ffffffffffffffffffffffffffffffffffffffff021916908373ffffffffffffffffffffffffffffffffffffffff16021790555060028282815481106117be576117bd6153d5565b5b906000526020600020906008020160040160006101000a81548160ff021916908360058111156117f1576117f0614c81565b5b0217905550611808565b808060010191505061170f565b508373ffffffffffffffffffffffffffffffffffffffff168673ffffffffffffffffffffffffffffffffffffffff167fc33034f11e74148d192f7bb138128c9467a27564b7632a7883081e259e4991368760405161186691906155dc565b60405180910390a350611881565b8080600101915050611234565b5050505050565b60066020528060005260406000206000915054906101000a900460ff1681565b60008054906101000a900473ffffffffffffffffffffffffffffffffffffffff1673ffffffffffffffffffffffffffffffffffffffff163373ffffffffffffffffffffffffffffffffffffffff1614611936576040517f08c379a000000000000000000000000000000000000000000000000000000000815260040161192d906152b7565b60405180910390fd5b6000600760008573ffffffffffffffffffffffffffffffffffffffff1673ffffffffffffffffffffffffffffffffffffffff168152602001908152602001600020905060005b8180549050811015611d5d578382828154811061199c5761199b6153d5565b5b906000526020600020906008020160050154148015611a105750600060058111156119ca576119c9614c81565b5b8282815481106119dd576119dc6153d5565b5b906000526020600020906008020160040160009054906101000a900460ff166005811115611a0e57611a0d614c81565b5b145b15611d505762054600828281548110611a2c57611a2b6153d5565b5b906000526020600020906008020160030154611a489190615516565b421115611a8a576040517f08c379a0000000000000000000000000000000000000000000000000000000008152600401611a8190615669565b60405180910390fd5b6001828281548110611a9f57611a9e6153d5565b5b906000526020600020906008020160040160156101000a81548160ff0219169083151502179055506001828281548110611adc57611adb6153d5565b5b906000526020600020906008020160040160006101000a81548160ff02191690836005811115611b0f57611b0e614c81565b5b021790555082828281548110611b2857611b276153d5565b5b9060005260206000209060080201600601819055506000600a60008060009054906101000a900473ffffffffffffffffffffffffffffffffffffffff1673ffffffffffffffffffffffffffffffffffffffff1673ffffffffffffffffffffffffffffffffffffffff168152602001908152602001600020905060005b8180549050811015611ca05785828281548110611bc457611bc36153d5565b5b90600052602060002090600802016005015403611c93576001828281548110611bf057611bef6153d5565b5b906000526020600020906008020160040160156101000a81548160ff0219169083151502179055506001828281548110611c2d57611c2c6153d5565b5b906000526020600020906008020160040160006101000a81548160ff02191690836005811115611c6057611c5f614c81565b5b021790555084828281548110611c7957611c786153d5565b5b906000526020600020906008020160060181905550611ca0565b8080600101915050611ba4565b50828281548110611cb457611cb36153d5565b5b906000526020600020906008020160000160009054906101000a900473ffffffffffffffffffffffffffffffffffffffff1673ffffffffffffffffffffffffffffffffffffffff163373ffffffffffffffffffffffffffffffffffffffff167f03393405d7395a0c4d585a29de9f0018db4a7348c4fb7789e78f9434be7cca1687604051611d4291906155dc565b60405180910390a350611d5d565b808060010191505061197c565b5050505050565b60008054906101000a900473ffffffffffffffffffffffffffffffffffffffff1673ffffffffffffffffffffffffffffffffffffffff163373ffffffffffffffffffffffffffffffffffffffff161480611e075750600460003373ffffffffffffffffffffffffffffffffffffffff1673ffffffffffffffffffffffffffffffffffffffff16815260200190815260200160002060009054906101000a900460ff165b611e46576040517f08c379a0000000000000000000000000000000000000000000000000000000008152600401611e3d906156fb565b60405180910390fd5b600460003373ffffffffffffffffffffffffffffffffffffffff1673ffffffffffffffffffffffffffffffffffffffff16815260200190815260200160002060009054906101000a900460ff16611ed2576040517f08c379a0000000000000000000000000000000000000000000000000000000008152600401611ec990615767565b60405180910390fd5b60008111611f15576040517f08c379a0000000000000000000000000000000000000000000000000000000008152600401611f0c906157d3565b60405180910390fd5b6000338383604051602001611f2c9392919061585c565b60405160208183030381529060405280519060200120905060006040518061018001604052803373ffffffffffffffffffffffffffffffffffffffff1681526020018573ffffffffffffffffffffffffffffffffffffffff16815260200184815260200142815260200160006005811115611faa57611fa9614c81565b5b8152602001600073ffffffffffffffffffffffffffffffffffffffff1681526020016000151581526020016000151581526020016000151581526020018381526020016000815260200160008152509050600760003373ffffffffffffffffffffffffffffffffffffffff1673ffffffffffffffffffffffffffffffffffffffff16815260200190815260200160002081908060018154018082558091505060019003906000526020600020906008020160009091909190915060008201518160000160006101000a81548173ffffffffffffffffffffffffffffffffffffffff021916908373ffffffffffffffffffffffffffffffffffffffff16021790555060208201518160010160006101000a81548173ffffffffffffffffffffffffffffffffffffffff021916908373ffffffffffffffffffffffffffffffffffffffff160217905550604082015181600201556060820151816003015560808201518160040160006101000a81548160ff0219169083600581111561213157612130614c81565b5b021790555060a08201518160040160016101000a81548173ffffffffffffffffffffffffffffffffffffffff021916908373ffffffffffffffffffffffffffffffffffffffff16021790555060c08201518160040160156101000a81548160ff02191690831515021790555060e08201518160040160166101000a81548160ff0219169083151502179055506101008201518160040160176101000a81548160ff0219169083151502179055506101208201518160050155610140820151816006015561016082015181600701555050600a60008060009054906101000a900473ffffffffffffffffffffffffffffffffffffffff1673ffffffffffffffffffffffffffffffffffffffff1673ffffffffffffffffffffffffffffffffffffffff16815260200190815260200160002081908060018154018082558091505060019003906000526020600020906008020160009091909190915060008201518160000160006101000a81548173ffffffffffffffffffffffffffffffffffffffff021916908373ffffffffffffffffffffffffffffffffffffffff16021790555060208201518160010160006101000a81548173ffffffffffffffffffffffffffffffffffffffff021916908373ffffffffffffffffffffffffffffffffffffffff160217905550604082015181600201556060820151816003015560808201518160040160006101000a81548160ff0219169083600581111561235857612357614c81565b5b021790555060a08201518160040160016101000a81548173ffffffffffffffffffffffffffffffffffffffff021916908373ffffffffffffffffffffffffffffffffffffffff16021790555060c08201518160040160156101000a81548160ff02191690831515021790555060e08201518160040160166101000a81548160ff0219169083151502179055506101008201518160040160176101000a81548160ff021916908315150217905550610120820151816005015561014082015181600601556101608201518160070155505060016006600084815260200190815260200160002060006101000a81548160ff0219169083151502179055508373ffffffffffffffffffffffffffffffffffffffff163373ffffffffffffffffffffffffffffffffffffffff167f5e70ce47de5651da95b32c055da196557493bdc1c460b116aaef9e18e53cfb8285426000876040516124b89493929190615899565b60405180910390a36205460081606001516124d39190615516565b421115612515576040517f08c379a000000000000000000000000000000000000000000000000000000000815260040161250c90615950565b60405180910390fd5b50505050565b6008602052816000526040600020818154811061253757600080fd5b9060005260206000209060080201600091509150508060000160009054906101000a900473ffffffffffffffffffffffffffffffffffffffff16908060010160009054906101000a900473ffffffffffffffffffffffffffffffffffffffff16908060020154908060030154908060040160009054906101000a900460ff16908060040160019054906101000a900473ffffffffffffffffffffffffffffffffffffffff16908060040160159054906101000a900460ff16908060040160169054906101000a900460ff16908060040160179054906101000a900460ff1690806005015490806006015490806007015490508c565b6002818154811061263c57600080fd5b906000526020600020016000915054906101000a900473ffffffffffffffffffffffffffffffffffffffff1681565b600560008373ffffffffffffffffffffffffffffffffffffffff1673ffffffffffffffffffffffffffffffffffffffff16815260200190815260200160002060009054906101000a900460ff1615801561270f5750600460008373ffffffffffffffffffffffffffffffffffffffff1673ffffffffffffffffffffffffffffffffffffffff16815260200190815260200160002060009054906101000a900460ff16155b80156127655750600360008373ffffffffffffffffffffffffffffffffffffffff1673ffffffffffffffffffffffffffffffffffffffff16815260200190815260200160002060009054906101000a900460ff16155b6127a4576040517f08c379a000000000000000000000000000000000000000000000000000000000815260040161279b906159bc565b60405180910390fd5b6001600360008473ffffffffffffffffffffffffffffffffffffffff1673ffffffffffffffffffffffffffffffffffffffff16815260200190815260200160002060006101000a81548160ff0219169083151502179055506002829080600181540180825580915050600190039060005260206000200160009091909190916101000a81548173ffffffffffffffffffffffffffffffffffffffff021916908373ffffffffffffffffffffffffffffffffffffffff16021790555080600960008473ffffffffffffffffffffffffffffffffffffffff1673ffffffffffffffffffffffffffffffffffffffff168152602001908152602001600020600001819055505050565b60008054906101000a900473ffffffffffffffffffffffffffffffffffffffff1673ffffffffffffffffffffffffffffffffffffffff163373ffffffffffffffffffffffffffffffffffffffff1614612938576040517f08c379a000000000000000000000000000000000000000000000000000000000815260040161292f906152b7565b60405180910390fd5b6000600760008673ffffffffffffffffffffffffffffffffffffffff1673ffffffffffffffffffffffffffffffffffffffff16815260200190815260200160002090506000806000905060005b838054905081101561304257868482815481106129a5576129a46153d5565b5b906000526020600020906008020160050154148015612a195750600460058111156129d3576129d2614c81565b5b8482815481106129e6576129e56153d5565b5b906000526020600020906008020160040160009054906101000a900460ff166005811115612a1757612a16614c81565b5b145b1561303557838181548110612a3157612a306153d5565b5b906000526020600020906008020160040160159054906101000a900460ff16612a8f576040517f08c379a0000000000000000000000000000000000000000000000000000000008152600401612a8690615a28565b60405180910390fd5b838181548110612aa257612aa16153d5565b5b906000526020600020906008020160040160169054906101000a900460ff1615612b01576040517f08c379a0000000000000000000000000000000000000000000000000000000008152600401612af890615aba565b60405180910390fd5b60008510158015612b135750601e8511155b15612b38576064601987612b279190615ada565b612b319190615b4b565b9250612bcb565b601f8510158015612b4a575060418511155b15612b6357600186612b5c9190615ada565b9250612bca565b60428510158015612b75575060648511155b15612b8e57600286612b879190615ada565b9250612bc9565b6040517f08c379a0000000000000000000000000000000000000000000000000000000008152600401612bc090615bc8565b60405180910390fd5b5b5b6001848281548110612be057612bdf6153d5565b5b906000526020600020906008020160040160166101000a81548160ff0219169083151502179055506005848281548110612c1d57612c1c6153d5565b5b906000526020600020906008020160040160006101000a81548160ff02191690836005811115612c5057612c4f614c81565b5b0217905550838181548110612c6857612c676153d5565b5b906000526020600020906008020160000160009054906101000a900473ffffffffffffffffffffffffffffffffffffffff1673ffffffffffffffffffffffffffffffffffffffff163373ffffffffffffffffffffffffffffffffffffffff167f64d831a72eb116207e4c18a6c1c8b5c01e67dc3f6cd26e8866b95e5a5ad5cf12858a604051612cf8929190615be8565b60405180910390a36000848281548110612d1557612d146153d5565b5b906000526020600020906008020160040160019054906101000a900473ffffffffffffffffffffffffffffffffffffffff1690506000600860008373ffffffffffffffffffffffffffffffffffffffff1673ffffffffffffffffffffffffffffffffffffffff168152602001908152602001600020905060005b8180549050811015612e625789828281548110612daf57612dae6153d5565b5b90600052602060002090600802016005015403612e55576001828281548110612ddb57612dda6153d5565b5b906000526020600020906008020160040160166101000a81548160ff0219169083151502179055506005828281548110612e1857612e176153d5565b5b906000526020600020906008020160040160006101000a81548160ff02191690836005811115612e4b57612e4a614c81565b5b0217905550612e62565b8080600101915050612d8f565b506000600a60008060009054906101000a900473ffffffffffffffffffffffffffffffffffffffff1673ffffffffffffffffffffffffffffffffffffffff1673ffffffffffffffffffffffffffffffffffffffff168152602001908152602001600020905060005b8180549050811015612f9d578a828281548110612eea57612ee96153d5565b5b90600052602060002090600802016005015403612f90576001828281548110612f1657612f156153d5565b5b906000526020600020906008020160040160166101000a81548160ff0219169083151502179055506005828281548110612f5357612f526153d5565b5b906000526020600020906008020160040160006101000a81548160ff02191690836005811115612f8657612f85614c81565b5b0217905550612f9d565b8080600101915050612eca565b50868481548110612fb157612fb06153d5565b5b906000526020600020906008020160000160009054906101000a900473ffffffffffffffffffffffffffffffffffffffff1673ffffffffffffffffffffffffffffffffffffffff166108fc879081150290604051600060405180830381858888f19350505050158015613028573d6000803e3d6000fd5b5060019450505050613042565b8080600101915050612985565b5080613083576040517f08c379a000000000000000000000000000000000000000000000000000000000815260040161307a90615c83565b60405180910390fd5b50505050505050565b60008054906101000a900473ffffffffffffffffffffffffffffffffffffffff1673ffffffffffffffffffffffffffffffffffffffff163373ffffffffffffffffffffffffffffffffffffffff16148061312f5750600460003373ffffffffffffffffffffffffffffffffffffffff1673ffffffffffffffffffffffffffffffffffffffff16815260200190815260200160002060009054906101000a900460ff165b61316e576040517f08c379a0000000000000000000000000000000000000000000000000000000008152600401613165906156fb565b60405180910390fd5b6000600760003373ffffffffffffffffffffffffffffffffffffffff1673ffffffffffffffffffffffffffffffffffffffff168152602001908152602001600020905060005b818054905081101561354857828282815481106131d4576131d36153d5565b5b90600052602060002090600802016005015414801561324857506002600581111561320257613201614c81565b5b828281548110613215576132146153d5565b5b906000526020600020906008020160040160009054906101000a900460ff16600581111561324657613245614c81565b5b145b1561353b5762015180828281548110613264576132636153d5565b5b9060005260206000209060080201600301546132809190615516565b4211156132c2576040517f08c379a00000000000000000000000000000000000000000000000000000000081526004016132b990615cef565b60405180910390fd5b60038282815481106132d7576132d66153d5565b5b906000526020600020906008020160040160006101000a81548160ff0219169083600581111561330a57613309614c81565b5b02179055506000828281548110613324576133236153d5565b5b906000526020600020906008020160040160019054906101000a900473ffffffffffffffffffffffffffffffffffffffff1690506000600860008373ffffffffffffffffffffffffffffffffffffffff1673ffffffffffffffffffffffffffffffffffffffff168152602001908152602001600020905060005b818054905081101561343457858282815481106133be576133bd6153d5565b5b906000526020600020906008020160050154036134275760038282815481106133ea576133e96153d5565b5b906000526020600020906008020160040160006101000a81548160ff0219169083600581111561341d5761341c614c81565b5b0217905550613434565b808060010191505061339e565b506000600a60008060009054906101000a900473ffffffffffffffffffffffffffffffffffffffff1673ffffffffffffffffffffffffffffffffffffffff1673ffffffffffffffffffffffffffffffffffffffff168152602001908152602001600020905060005b818054905081101561353257868282815481106134bc576134bb6153d5565b5b906000526020600020906008020160050154036135255760038282815481106134e8576134e76153d5565b5b906000526020600020906008020160040160006101000a81548160ff0219169083600581111561351b5761351a614c81565b5b0217905550613532565b808060010191505061349c565b50505050613548565b80806001019150506131b4565b505050565b600560008273ffffffffffffffffffffffffffffffffffffffff1673ffffffffffffffffffffffffffffffffffffffff16815260200190815260200160002060009054906101000a900460ff161580156135f15750600360008273ffffffffffffffffffffffffffffffffffffffff1673ffffffffffffffffffffffffffffffffffffffff16815260200190815260200160002060009054906101000a900460ff16155b80156136475750600460008273ffffffffffffffffffffffffffffffffffffffff1673ffffffffffffffffffffffffffffffffffffffff16815260200190815260200160002060009054906101000a900460ff16155b613686576040517f08c379a000000000000000000000000000000000000000000000000000000000815260040161367d906159bc565b60405180910390fd5b6001600460008373ffffffffffffffffffffffffffffffffffffffff1673ffffffffffffffffffffffffffffffffffffffff16815260200190815260200160002060006101000a81548160ff0219169083151502179055506001819080600181540180825580915050600190039060005260206000200160009091909190916101000a81548173ffffffffffffffffffffffffffffffffffffffff021916908373ffffffffffffffffffffffffffffffffffffffff16021790555050565b606060008054906101000a900473ffffffffffffffffffffffffffffffffffffffff1673ffffffffffffffffffffffffffffffffffffffff163373ffffffffffffffffffffffffffffffffffffffff1614806137e95750600360003373ffffffffffffffffffffffffffffffffffffffff1673ffffffffffffffffffffffffffffffffffffffff16815260200190815260200160002060009054906101000a900460ff165b613828576040517f08c379a000000000000000000000000000000000000000000000000000000000815260040161381f90615349565b60405180910390fd5b600860008373ffffffffffffffffffffffffffffffffffffffff1673ffffffffffffffffffffffffffffffffffffffff168152602001908152602001600020805480602002602001604051908101604052809291908181526020016000905b82821015613a7a5783829060005260206000209060080201604051806101800160405290816000820160009054906101000a900473ffffffffffffffffffffffffffffffffffffffff1673ffffffffffffffffffffffffffffffffffffffff1673ffffffffffffffffffffffffffffffffffffffff1681526020016001820160009054906101000a900473ffffffffffffffffffffffffffffffffffffffff1673ffffffffffffffffffffffffffffffffffffffff1673ffffffffffffffffffffffffffffffffffffffff16815260200160028201548152602001600382015481526020016004820160009054906101000a900460ff1660058111156139905761398f614c81565b5b60058111156139a2576139a1614c81565b5b81526020016004820160019054906101000a900473ffffffffffffffffffffffffffffffffffffffff1673ffffffffffffffffffffffffffffffffffffffff1673ffffffffffffffffffffffffffffffffffffffff1681526020016004820160159054906101000a900460ff161515151581526020016004820160169054906101000a900460ff161515151581526020016004820160179054906101000a900460ff16151515158152602001600582015481526020016006820154815260200160078201548152505081526020019060010190613887565b505050509050919050565b600a6020528160005260406000208181548110613aa157600080fd5b9060005260206000209060080201600091509150508060000160009054906101000a900473ffffffffffffffffffffffffffffffffffffffff16908060010160009054906101000a900473ffffffffffffffffffffffffffffffffffffffff16908060020154908060030154908060040160009054906101000a900460ff16908060040160019054906101000a900473ffffffffffffffffffffffffffffffffffffffff16908060040160159054906101000a900460ff16908060040160169054906101000a900460ff16908060040160179054906101000a900460ff1690806005015490806006015490806007015490508c565b606060008054906101000a900473ffffffffffffffffffffffffffffffffffffffff1673ffffffffffffffffffffffffffffffffffffffff163373ffffffffffffffffffffffffffffffffffffffff161480613c3b5750600460003373ffffffffffffffffffffffffffffffffffffffff1673ffffffffffffffffffffffffffffffffffffffff16815260200190815260200160002060009054906101000a900460ff165b613c7a576040517f08c379a0000000000000000000000000000000000000000000000000000000008152600401613c71906156fb565b60405180910390fd5b600760008373ffffffffffffffffffffffffffffffffffffffff1673ffffffffffffffffffffffffffffffffffffffff168152602001908152602001600020805480602002602001604051908101604052809291908181526020016000905b82821015613ecc5783829060005260206000209060080201604051806101800160405290816000820160009054906101000a900473ffffffffffffffffffffffffffffffffffffffff1673ffffffffffffffffffffffffffffffffffffffff1673ffffffffffffffffffffffffffffffffffffffff1681526020016001820160009054906101000a900473ffffffffffffffffffffffffffffffffffffffff1673ffffffffffffffffffffffffffffffffffffffff1673ffffffffffffffffffffffffffffffffffffffff16815260200160028201548152602001600382015481526020016004820160009054906101000a900460ff166005811115613de257613de1614c81565b5b6005811115613df457613df3614c81565b5b81526020016004820160019054906101000a900473ffffffffffffffffffffffffffffffffffffffff1673ffffffffffffffffffffffffffffffffffffffff1673ffffffffffffffffffffffffffffffffffffffff1681526020016004820160159054906101000a900460ff161515151581526020016004820160169054906101000a900460ff161515151581526020016004820160179054906101000a900460ff16151515158152602001600582015481526020016006820154815260200160078201548152505081526020019060010190613cd9565b505050509050919050565b60056020528060005260406000206000915054906101000a900460ff1681565b60008054906101000a900473ffffffffffffffffffffffffffffffffffffffff1673ffffffffffffffffffffffffffffffffffffffff163373ffffffffffffffffffffffffffffffffffffffff161480613f9a5750600360003373ffffffffffffffffffffffffffffffffffffffff1673ffffffffffffffffffffffffffffffffffffffff16815260200190815260200160002060009054906101000a900460ff165b613fd9576040517f08c379a0000000000000000000000000000000000000000000000000000000008152600401613fd090615349565b60405180910390fd5b6000600760008473ffffffffffffffffffffffffffffffffffffffff1673ffffffffffffffffffffffffffffffffffffffff168152602001908152602001600020905060005b8180549050811015614568578282828154811061403f5761403e6153d5565b5b9060005260206000209060080201600501541480156140b357506003600581111561406d5761406c614c81565b5b8282815481106140805761407f6153d5565b5b906000526020600020906008020160040160009054906101000a900460ff1660058111156140b1576140b0614c81565b5b145b801561412e57503373ffffffffffffffffffffffffffffffffffffffff168282815481106140e4576140e36153d5565b5b906000526020600020906008020160040160019054906101000a900473ffffffffffffffffffffffffffffffffffffffff1673ffffffffffffffffffffffffffffffffffffffff16145b1561455b576001828281548110614148576141476153d5565b5b906000526020600020906008020160040160176101000a81548160ff0219169083151502179055506004828281548110614185576141846153d5565b5b906000526020600020906008020160040160006101000a81548160ff021916908360058111156141b8576141b7614c81565b5b0217905550428282815481106141d1576141d06153d5565b5b90600052602060002090600802016007018190555060008282815481106141fb576141fa6153d5565b5b906000526020600020906008020160040160019054906101000a900473ffffffffffffffffffffffffffffffffffffffff169050828281548110614242576142416153d5565b5b906000526020600020906008020160020154600960008373ffffffffffffffffffffffffffffffffffffffff1673ffffffffffffffffffffffffffffffffffffffff16815260200190815260200160002060020160008282546142a59190615d0f565b925050819055506000600860008373ffffffffffffffffffffffffffffffffffffffff1673ffffffffffffffffffffffffffffffffffffffff168152602001908152602001600020905060005b81805490508110156143ee5785828281548110614312576143116153d5565b5b906000526020600020906008020160050154036143e157600182828154811061433e5761433d6153d5565b5b906000526020600020906008020160040160176101000a81548160ff021916908315150217905550600482828154811061437b5761437a6153d5565b5b906000526020600020906008020160040160006101000a81548160ff021916908360058111156143ae576143ad614c81565b5b0217905550428282815481106143c7576143c66153d5565b5b9060005260206000209060080201600701819055506143ee565b80806001019150506142f2565b506000600a60008060009054906101000a900473ffffffffffffffffffffffffffffffffffffffff1673ffffffffffffffffffffffffffffffffffffffff1673ffffffffffffffffffffffffffffffffffffffff168152602001908152602001600020905060005b81805490508110156145525786828281548110614476576144756153d5565b5b906000526020600020906008020160050154036145455760018282815481106144a2576144a16153d5565b5b906000526020600020906008020160040160176101000a81548160ff02191690831515021790555060048282815481106144df576144de6153d5565b5b906000526020600020906008020160040160006101000a81548160ff0219169083600581111561451257614511614c81565b5b02179055504282828154811061452b5761452a6153d5565b5b906000526020600020906008020160070181905550614552565b8080600101915050614456565b50505050614568565b808060010191505061401f565b50505050565b60096020528060005260406000206000915090508060000154908060010154908060020154905083565b60046020528060005260406000206000915054906101000a900460ff1681565b600760205281600052604060002081815481106145d457600080fd5b9060005260206000209060080201600091509150508060000160009054906101000a900473ffffffffffffffffffffffffffffffffffffffff16908060010160009054906101000a900473ffffffffffffffffffffffffffffffffffffffff16908060020154908060030154908060040160009054906101000a900460ff16908060040160019054906101000a900473ffffffffffffffffffffffffffffffffffffffff16908060040160159054906101000a900460ff16908060040160169054906101000a900460ff16908060040160179054906101000a900460ff1690806005015490806006015490806007015490508c565b600460008273ffffffffffffffffffffffffffffffffffffffff1673ffffffffffffffffffffffffffffffffffffffff16815260200190815260200160002060009054906101000a900460ff1615801561476d5750600360008273ffffffffffffffffffffffffffffffffffffffff1673ffffffffffffffffffffffffffffffffffffffff16815260200190815260200160002060009054906101000a900460ff16155b80156147c35750600560008273ffffffffffffffffffffffffffffffffffffffff1673ffffffffffffffffffffffffffffffffffffffff16815260200190815260200160002060009054906101000a900460ff16155b614802576040517f08c379a00000000000000000000000000000000000000000000000000000000081526004016147f9906159bc565b60405180910390fd5b6001600560008373ffffffffffffffffffffffffffffffffffffffff1673ffffffffffffffffffffffffffffffffffffffff16815260200190815260200160002060006101000a81548160ff021916908315150217905550806000806101000a81548173ffffffffffffffffffffffffffffffffffffffff021916908373ffffffffffffffffffffffffffffffffffffffff16021790555050565b600181815481106148ad57600080fd5b906000526020600020016000915054906101000a900473ffffffffffffffffffffffffffffffffffffffff1681565b60008054906101000a900473ffffffffffffffffffffffffffffffffffffffff1681565b600360003373ffffffffffffffffffffffffffffffffffffffff1673ffffffffffffffffffffffffffffffffffffffff16815260200190815260200160002060009054906101000a900460ff1661498c576040517f08c379a000000000000000000000000000000000000000000000000000000000815260040161498390615db5565b60405180910390fd5b80600960003373ffffffffffffffffffffffffffffffffffffffff1673ffffffffffffffffffffffffffffffffffffffff1681526020019081526020016000206001018190555080600960003373ffffffffffffffffffffffffffffffffffffffff1673ffffffffffffffffffffffffffffffffffffffff1681526020019081526020016000206002018190555050565b60008060009054906101000a900473ffffffffffffffffffffffffffffffffffffffff16905090565b60006a636f6e736f6c652e6c6f679050600080835160208501845afa505050565b614a6f615dd5565b565b604051806101800160405280600073ffffffffffffffffffffffffffffffffffffffff168152602001600073ffffffffffffffffffffffffffffffffffffffff168152602001600081526020016000815260200160006005811115614ad957614ad8614c81565b5b8152602001600073ffffffffffffffffffffffffffffffffffffffff1681526020016000151581526020016000151581526020016000151581526020016000801916815260200160008152602001600081525090565b600080fd5b600073ffffffffffffffffffffffffffffffffffffffff82169050919050565b6000614b5f82614b34565b9050919050565b614b6f81614b54565b8114614b7a57600080fd5b50565b600081359050614b8c81614b66565b92915050565b600060208284031215614ba857614ba7614b2f565b5b6000614bb684828501614b7d565b91505092915050565b60008115159050919050565b614bd481614bbf565b82525050565b6000602082019050614bef6000830184614bcb565b92915050565b6000819050919050565b614c0881614bf5565b82525050565b6000604082019050614c236000830185614bff565b614c306020830184614bff565b9392505050565b600081519050919050565b600082825260208201905092915050565b6000819050602082019050919050565b614c6c81614b54565b82525050565b614c7b81614bf5565b82525050565b7f4e487b7100000000000000000000000000000000000000000000000000000000600052602160045260246000fd5b60068110614cc157614cc0614c81565b5b50565b6000819050614cd282614cb0565b919050565b6000614ce282614cc4565b9050919050565b614cf281614cd7565b82525050565b614d0181614bbf565b82525050565b6000819050919050565b614d1a81614d07565b82525050565b61018082016000820151614d376000850182614c63565b506020820151614d4a6020850182614c63565b506040820151614d5d6040850182614c72565b506060820151614d706060850182614c72565b506080820151614d836080850182614ce9565b5060a0820151614d9660a0850182614c63565b5060c0820151614da960c0850182614cf8565b5060e0820151614dbc60e0850182614cf8565b50610100820151614dd1610100850182614cf8565b50610120820151614de6610120850182614d11565b50610140820151614dfb610140850182614c72565b50610160820151614e10610160850182614c72565b50505050565b6000614e228383614d20565b6101808301905092915050565b6000602082019050919050565b6000614e4782614c37565b614e518185614c42565b9350614e5c83614c53565b8060005b83811015614e8d578151614e748882614e16565b9750614e7f83614e2f565b925050600181019050614e60565b5085935050505092915050565b60006020820190508181036000830152614eb48184614e3c565b905092915050565b614ec581614d07565b8114614ed057600080fd5b50565b600081359050614ee281614ebc565b92915050565b600080600060608486031215614f0157614f00614b2f565b5b6000614f0f86828701614b7d565b9350506020614f2086828701614ed3565b9250506040614f3186828701614b7d565b9150509250925092565b600060208284031215614f5157614f50614b2f565b5b6000614f5f84828501614ed3565b91505092915050565b614f7181614bf5565b8114614f7c57600080fd5b50565b600081359050614f8e81614f68565b92915050565b600080600060608486031215614fad57614fac614b2f565b5b6000614fbb86828701614b7d565b9350506020614fcc86828701614ed3565b9250506040614fdd86828701614f7f565b9150509250925092565b60008060408385031215614ffe57614ffd614b2f565b5b600061500c85828601614b7d565b925050602061501d85828601614f7f565b9150509250929050565b61503081614b54565b82525050565b61503f81614cd7565b82525050565b61504e81614d07565b82525050565b60006101808201905061506a600083018f615027565b615077602083018e615027565b615084604083018d614bff565b615091606083018c614bff565b61509e608083018b615036565b6150ab60a083018a615027565b6150b860c0830189614bcb565b6150c560e0830188614bcb565b6150d3610100830187614bcb565b6150e1610120830186615045565b6150ef610140830185614bff565b6150fd610160830184614bff565b9d9c50505050505050505050505050565b60006020828403121561512457615123614b2f565b5b600061513284828501614f7f565b91505092915050565b60006020820190506151506000830184615027565b92915050565b600080600080608085870312156151705761516f614b2f565b5b600061517e87828801614b7d565b945050602061518f87828801614ed3565b93505060406151a087828801614f7f565b92505060606151b187828801614f7f565b91505092959194509250565b600080604083850312156151d4576151d3614b2f565b5b60006151e285828601614b7d565b92505060206151f385828601614ed3565b9150509250929050565b60006060820190506152126000830186614bff565b61521f6020830185614bff565b61522c6040830184614bff565b949350505050565b600082825260208201905092915050565b7f4f6e6c792046434920636f6e74726163742063616e2063616c6c20746869732060008201527f66756e6374696f6e000000000000000000000000000000000000000000000000602082015250565b60006152a1602883615234565b91506152ac82615245565b604082019050919050565b600060208201905081810360008301526152d081615294565b9050919050565b7f4f6e6c7920464349206f72204d696c6c657220636f6e74726163742063616e2060008201527f63616c6c20746869732066756e6374696f6e0000000000000000000000000000602082015250565b6000615333603283615234565b915061533e826152d7565b604082019050919050565b6000602082019050818103600083015261536281615326565b9050919050565b7f41646472657373206973206e6f742061204d696c6c6572000000000000000000600082015250565b600061539f601783615234565b91506153aa82615369565b602082019050919050565b600060208201905081810360008301526153ce81615392565b9050919050565b7f4e487b7100000000000000000000000000000000000000000000000000000000600052603260045260246000fd5b7f4e487b7100000000000000000000000000000000000000000000000000000000600052601160045260246000fd5b600061543e82614bf5565b91507fffffffffffffffffffffffffffffffffffffffffffffffffffffffffffffffff82036154705761546f615404565b5b600182019050919050565b7f4e487b7100000000000000000000000000000000000000000000000000000000600052604160045260246000fd5b7f496e76616c6964206d696c6c6572206164647265737300000000000000000000600082015250565b60006154e0601683615234565b91506154eb826154aa565b602082019050919050565b6000602082019050818103600083015261550f816154d3565b9050919050565b600061552182614bf5565b915061552c83614bf5565b925082820190508082111561554457615543615404565b5b92915050565b7f4d696c6c65722061737369676e6d656e7420646561646c696e6520706173736560008201527f6400000000000000000000000000000000000000000000000000000000000000602082015250565b60006155a6602183615234565b91506155b18261554a565b604082019050919050565b600060208201905081810360008301526155d581615599565b9050919050565b60006020820190506155f16000830184615045565b92915050565b7f5175616c697479204173736573736d656e7420646561646c696e65207061737360008201527f6564000000000000000000000000000000000000000000000000000000000000602082015250565b6000615653602283615234565b915061565e826155f7565b604082019050919050565b6000602082019050818103600083015261568281615646565b9050919050565b7f4f6e6c7920464349206f72204661726d657220636f6e74726163742063616e2060008201527f63616c6c20746869732066756e6374696f6e0000000000000000000000000000602082015250565b60006156e5603283615234565b91506156f082615689565b604082019050919050565b60006020820190508181036000830152615714816156d8565b9050919050565b7f4f6e6c79206661726d6572732063616e20637265617465206f72646572730000600082015250565b6000615751601e83615234565b915061575c8261571b565b602082019050919050565b6000602082019050818103600083015261578081615744565b9050919050565b7f5175616e74697479206d7573742062652067726561746572207468616e203000600082015250565b60006157bd601f83615234565b91506157c882615787565b602082019050919050565b600060208201905081810360008301526157ec816157b0565b9050919050565b60008160601b9050919050565b600061580b826157f3565b9050919050565b600061581d82615800565b9050919050565b61583561583082614b54565b615812565b82525050565b6000819050919050565b61585661585182614bf5565b61583b565b82525050565b60006158688286615824565b6014820191506158788285615824565b6014820191506158888284615845565b602082019150819050949350505050565b60006080820190506158ae6000830187614bff565b6158bb6020830186614bff565b6158c86040830185615036565b6158d56060830184615045565b95945050505050565b7f5175616c697479206173736573736d656e7420646561646c696e65207061737360008201527f6564000000000000000000000000000000000000000000000000000000000000602082015250565b600061593a602283615234565b9150615945826158de565b604082019050919050565b600060208201905081810360008301526159698161592d565b9050919050565b7f4164647265737320616c72656164792072656769737465726564200000000000600082015250565b60006159a6601b83615234565b91506159b182615970565b602082019050919050565b600060208201905081810360008301526159d581615999565b9050919050565b7f5175616c697479206173736573736d656e74206e6f7420636f6d706c65746564600082015250565b6000615a12602083615234565b9150615a1d826159dc565b602082019050919050565b60006020820190508181036000830152615a4181615a05565b9050919050565b7f5061796d656e7420616c726561647920636f6d706c6574656420666f7220746860008201527f6973206f72646572000000000000000000000000000000000000000000000000602082015250565b6000615aa4602883615234565b9150615aaf82615a48565b604082019050919050565b60006020820190508181036000830152615ad381615a97565b9050919050565b6000615ae582614bf5565b9150615af083614bf5565b9250828202615afe81614bf5565b91508282048414831517615b1557615b14615404565b5b5092915050565b7f4e487b7100000000000000000000000000000000000000000000000000000000600052601260045260246000fd5b6000615b5682614bf5565b9150615b6183614bf5565b925082615b7157615b70615b1c565b5b828204905092915050565b7f496e76616c6964207175616c697479206173736573736d656e742076616c7565600082015250565b6000615bb2602083615234565b9150615bbd82615b7c565b602082019050919050565b60006020820190508181036000830152615be181615ba5565b9050919050565b6000604082019050615bfd6000830185614bff565b615c0a6020830184615045565b9392505050565b7f5061796d656e7420616c726561647920636f6d706c6574656420666f7220746860008201527f6973206f72646572206f72206f72646572206e6f7420666f756e640000000000602082015250565b6000615c6d603b83615234565b9150615c7882615c11565b604082019050919050565b60006020820190508181036000830152615c9c81615c60565b9050919050565b7f44656c697665727920737461727420646561646c696e65207061737365640000600082015250565b6000615cd9601e83615234565b9150615ce482615ca3565b602082019050919050565b60006020820190508181036000830152615d0881615ccc565b9050919050565b6000615d1a82614bf5565b9150615d2583614bf5565b9250828203905081811115615d3d57615d3c615404565b5b92915050565b7f4f6e6c79206d696c6c6572732063616e2073657420746172676574207175616e60008201527f7469747900000000000000000000000000000000000000000000000000000000602082015250565b6000615d9f602483615234565b9150615daa82615d43565b604082019050919050565b60006020820190508181036000830152615dce81615d92565b9050919050565b7f4e487b7100000000000000000000000000000000000000000000000000000000600052605160045260246000fdfea2646970667358221220c18c09519d6a2d4df70951b0fe690ae862c19586bf868013bd033c6a6da4266764736f6c63430008180033",
  "linkReferences": {},
  "deployedLinkReferences": {}
}