{
  "_format": "hh-sol-artifact-1",
  "contractName": "PaddyProcurement",
  "sourceName": "contracts/PaddyProcurement.sol",
  "abi": [
    {
      "inputs": [],
      "stateMutability": "nonpayable",
      "type": "constructor"
    },
    {
      "anonymous": false,
      "inputs": [
        {
          "indexed": true,
          "internalType": "address",
          "name": "farmer",
          "type": "address"
        },
        {
          "indexed": true,
          "internalType": "address",
          "name": "miller",
          "type": "address"
        },
        {
          "indexed": false,
          "internalType": "bytes32",
          "name": "orderId",
          "type": "bytes32"
        }
      ],
      "name": "MillerAssigned",
      "type": "event"
    },
    {
      "anonymous": false,
      "inputs": [
        {
          "indexed": true,
          "internalType": "address",
          "name": "farmer",
          "type": "address"
        },
        {
          "indexed": true,
          "internalType": "address",
          "name": "fci",
          "type": "address"
        },
        {
          "indexed": false,
          "internalType": "uint256",
          "name": "quantity",
          "type": "uint256"
        },
        {
          "indexed": false,
          "internalType": "uint256",
          "name": "dateTime",
          "type": "uint256"
        },
        {
          "indexed": false,
          "internalType": "enum PaddyProcurement.OrderStatus",
          "name": "status",
          "type": "uint8"
        },
        {
          "indexed": false,
          "internalType": "bytes32",
          "name": "orderId",
          "type": "bytes32"
        }
      ],
      "name": "OrderCreated",
      "type": "event"
    },
    {
      "anonymous": false,
      "inputs": [
        {
          "indexed": true,
          "internalType": "address",
          "name": "fci",
          "type": "address"
        },
        {
          "indexed": true,
          "internalType": "address",
          "name": "farmer",
          "type": "address"
        },
        {
          "indexed": false,
          "internalType": "uint256",
          "name": "amount",
          "type": "uint256"
        },
        {
          "indexed": false,
          "internalType": "bytes32",
          "name": "orderId",
          "type": "bytes32"
        }
      ],
      "name": "PaymentCompleted",
      "type": "event"
    },
    {
      "anonymous": false,
      "inputs": [
        {
          "indexed": true,
          "internalType": "address",
          "name": "fci",
          "type": "address"
        },
        {
          "indexed": true,
          "internalType": "address",
          "name": "farmer",
          "type": "address"
        },
        {
          "indexed": false,
          "internalType": "bytes32",
          "name": "orderId",
          "type": "bytes32"
        }
      ],
      "name": "QualityAssessed",
      "type": "event"
    },
    {
      "inputs": [
        {
          "internalType": "address",
          "name": "_farmer",
          "type": "address"
        },
        {
          "internalType": "bytes32",
          "name": "_orderId",
          "type": "bytes32"
        },
        {
          "internalType": "uint256",
          "name": "_qualityValue",
          "type": "uint256"
        }
      ],
      "name": "assessQuality",
      "outputs": [],
      "stateMutability": "nonpayable",
      "type": "function"
    },
    {
      "inputs": [
        {
          "internalType": "address",
          "name": "_farmer",
          "type": "address"
        },
        {
          "internalType": "bytes32",
          "name": "_orderId",
          "type": "bytes32"
        },
        {
          "internalType": "address",
          "name": "_selectedMiller",
          "type": "address"
        }
      ],
      "name": "assignMiller",
      "outputs": [],
      "stateMutability": "nonpayable",
      "type": "function"
    },
    {
      "inputs": [
        {
          "internalType": "address",
          "name": "_farmer",
          "type": "address"
        },
        {
          "internalType": "bytes32",
          "name": "_orderId",
          "type": "bytes32"
        },
        {
          "internalType": "uint256",
          "name": "_quantity",
          "type": "uint256"
        },
        {
          "internalType": "uint256",
          "name": "_qualityValue",
          "type": "uint256"
        }
      ],
      "name": "completePayment",
      "outputs": [],
      "stateMutability": "payable",
      "type": "function"
    },
    {
      "inputs": [
        {
          "internalType": "address",
          "name": "_farmer",
          "type": "address"
        },
        {
          "internalType": "bytes32",
          "name": "_orderId",
          "type": "bytes32"
        }
      ],
      "name": "confirmDelivery",
      "outputs": [],
      "stateMutability": "nonpayable",
      "type": "function"
    },
    {
      "inputs": [
        {
          "internalType": "address",
          "name": "_fci",
          "type": "address"
        },
        {
          "internalType": "uint256",
          "name": "_quantity",
          "type": "uint256"
        }
      ],
      "name": "createOrder",
      "outputs": [],
      "stateMutability": "nonpayable",
      "type": "function"
    },
    {
      "inputs": [
        {
          "internalType": "uint256",
          "name": "",
          "type": "uint256"
        }
      ],
      "name": "farmersList",
      "outputs": [
        {
          "internalType": "address",
          "name": "",
          "type": "address"
        }
      ],
      "stateMutability": "view",
      "type": "function"
    },
    {
      "inputs": [],
      "name": "fciAddress",
      "outputs": [
        {
          "internalType": "address",
          "name": "",
          "type": "address"
        }
      ],
      "stateMutability": "view",
      "type": "function"
    },
    {
      "inputs": [
        {
          "internalType": "address",
          "name": "_miller",
          "type": "address"
        }
      ],
      "name": "getAcceptedOrdersByMiller",
      "outputs": [
        {
          "components": [
            {
              "internalType": "address",
              "name": "farmer",
              "type": "address"
            },
            {
              "internalType": "address",
              "name": "fci",
              "type": "address"
            },
            {
              "internalType": "uint256",
              "name": "quantity",
              "type": "uint256"
            },
            {
              "internalType": "uint256",
              "name": "dateTime",
              "type": "uint256"
            },
            {
              "internalType": "enum PaddyProcurement.OrderStatus",
              "name": "status",
              "type": "uint8"
            },
            {
              "internalType": "address",
              "name": "assignedMiller",
              "type": "address"
            },
            {
              "internalType": "bool",
              "name": "qualityAssessed",
              "type": "bool"
            },
            {
              "internalType": "bool",
              "name": "paymentCompleted",
              "type": "bool"
            },
            {
              "internalType": "bool",
              "name": "deliveredToMiller",
              "type": "bool"
            },
            {
              "internalType": "bytes32",
              "name": "orderId",
              "type": "bytes32"
            },
            {
              "internalType": "uint256",
              "name": "assessQualityValue",
              "type": "uint256"
            },
            {
              "internalType": "uint256",
              "name": "deliveryConfirmationDate",
              "type": "uint256"
            }
          ],
          "internalType": "struct PaddyProcurement.Order[]",
          "name": "",
          "type": "tuple[]"
        }
      ],
      "stateMutability": "view",
      "type": "function"
    },
    {
      "inputs": [],
      "name": "getAllTransactionsOfFCI",
      "outputs": [
        {
          "components": [
            {
              "internalType": "address",
              "name": "farmer",
              "type": "address"
            },
            {
              "internalType": "address",
              "name": "fci",
              "type": "address"
            },
            {
              "internalType": "uint256",
              "name": "quantity",
              "type": "uint256"
            },
            {
              "internalType": "uint256",
              "name": "dateTime",
              "type": "uint256"
            },
            {
              "internalType": "enum PaddyProcurement.OrderStatus",
              "name": "status",
              "type": "uint8"
            },
            {
              "internalType": "address",
              "name": "assignedMiller",
              "type": "address"
            },
            {
              "internalType": "bool",
              "name": "qualityAssessed",
              "type": "bool"
            },
            {
              "internalType": "bool",
              "name": "paymentCompleted",
              "type": "bool"
            },
            {
              "internalType": "bool",
              "name": "deliveredToMiller",
              "type": "bool"
            },
            {
              "internalType": "bytes32",
              "name": "orderId",
              "type": "bytes32"
            },
            {
              "internalType": "uint256",
              "name": "assessQualityValue",
              "type": "uint256"
            },
            {
              "internalType": "uint256",
              "name": "deliveryConfirmationDate",
              "type": "uint256"
            }
          ],
          "internalType": "struct PaddyProcurement.Order[]",
          "name": "",
          "type": "tuple[]"
        }
      ],
      "stateMutability": "view",
      "type": "function"
    },
    {
      "inputs": [],
      "name": "getFCIAddress",
      "outputs": [
        {
          "internalType": "address",
          "name": "",
          "type": "address"
        }
      ],
      "stateMutability": "view",
      "type": "function"
    },
    {
      "inputs": [
        {
          "internalType": "address",
          "name": "_miller",
          "type": "address"
        }
      ],
      "name": "getMillerCapacity",
      "outputs": [
        {
          "internalType": "uint256",
          "name": "",
          "type": "uint256"
        },
        {
          "internalType": "uint256",
          "name": "",
          "type": "uint256"
        }
      ],
      "stateMutability": "view",
      "type": "function"
    },
    {
      "inputs": [
        {
          "internalType": "address",
          "name": "_farmer",
          "type": "address"
        }
      ],
      "name": "getOrdersByFarmer",
      "outputs": [
        {
          "components": [
            {
              "internalType": "address",
              "name": "farmer",
              "type": "address"
            },
            {
              "internalType": "address",
              "name": "fci",
              "type": "address"
            },
            {
              "internalType": "uint256",
              "name": "quantity",
              "type": "uint256"
            },
            {
              "internalType": "uint256",
              "name": "dateTime",
              "type": "uint256"
            },
            {
              "internalType": "enum PaddyProcurement.OrderStatus",
              "name": "status",
              "type": "uint8"
            },
            {
              "internalType": "address",
              "name": "assignedMiller",
              "type": "address"
            },
            {
              "internalType": "bool",
              "name": "qualityAssessed",
              "type": "bool"
            },
            {
              "internalType": "bool",
              "name": "paymentCompleted",
              "type": "bool"
            },
            {
              "internalType": "bool",
              "name": "deliveredToMiller",
              "type": "bool"
            },
            {
              "internalType": "bytes32",
              "name": "orderId",
              "type": "bytes32"
            },
            {
              "internalType": "uint256",
              "name": "assessQualityValue",
              "type": "uint256"
            },
            {
              "internalType": "uint256",
              "name": "deliveryConfirmationDate",
              "type": "uint256"
            }
          ],
          "internalType": "struct PaddyProcurement.Order[]",
          "name": "",
          "type": "tuple[]"
        }
      ],
      "stateMutability": "view",
      "type": "function"
    },
    {
      "inputs": [
        {
          "internalType": "address",
          "name": "_miller",
          "type": "address"
        }
      ],
      "name": "getPendingOrdersByMiller",
      "outputs": [
        {
          "components": [
            {
              "internalType": "address",
              "name": "farmer",
              "type": "address"
            },
            {
              "internalType": "address",
              "name": "fci",
              "type": "address"
            },
            {
              "internalType": "uint256",
              "name": "quantity",
              "type": "uint256"
            },
            {
              "internalType": "uint256",
              "name": "dateTime",
              "type": "uint256"
            },
            {
              "internalType": "enum PaddyProcurement.OrderStatus",
              "name": "status",
              "type": "uint8"
            },
            {
              "internalType": "address",
              "name": "assignedMiller",
              "type": "address"
            },
            {
              "internalType": "bool",
              "name": "qualityAssessed",
              "type": "bool"
            },
            {
              "internalType": "bool",
              "name": "paymentCompleted",
              "type": "bool"
            },
            {
              "internalType": "bool",
              "name": "deliveredToMiller",
              "type": "bool"
            },
            {
              "internalType": "bytes32",
              "name": "orderId",
              "type": "bytes32"
            },
            {
              "internalType": "uint256",
              "name": "assessQualityValue",
              "type": "uint256"
            },
            {
              "internalType": "uint256",
              "name": "deliveryConfirmationDate",
              "type": "uint256"
            }
          ],
          "internalType": "struct PaddyProcurement.Order[]",
          "name": "",
          "type": "tuple[]"
        }
      ],
      "stateMutability": "view",
      "type": "function"
    },
    {
      "inputs": [
        {
          "internalType": "address",
          "name": "",
          "type": "address"
        }
      ],
      "name": "isFCI",
      "outputs": [
        {
          "internalType": "bool",
          "name": "",
          "type": "bool"
        }
      ],
      "stateMutability": "view",
      "type": "function"
    },
    {
      "inputs": [
        {
          "internalType": "address",
          "name": "",
          "type": "address"
        }
      ],
      "name": "isFarmer",
      "outputs": [
        {
          "internalType": "bool",
          "name": "",
          "type": "bool"
        }
      ],
      "stateMutability": "view",
      "type": "function"
    },
    {
      "inputs": [
        {
          "internalType": "address",
          "name": "",
          "type": "address"
        }
      ],
      "name": "isMiller",
      "outputs": [
        {
          "internalType": "bool",
          "name": "",
          "type": "bool"
        }
      ],
      "stateMutability": "view",
      "type": "function"
    },
    {
      "inputs": [
        {
          "internalType": "address",
          "name": "",
          "type": "address"
        }
      ],
      "name": "millerInventories",
      "outputs": [
        {
          "internalType": "uint256",
          "name": "maxStorageCapacity",
          "type": "uint256"
        },
        {
          "internalType": "uint256",
          "name": "targetQuantity",
          "type": "uint256"
        },
        {
          "internalType": "uint256",
          "name": "availableCapacity",
          "type": "uint256"
        }
      ],
      "stateMutability": "view",
      "type": "function"
    },
    {
      "inputs": [
        {
          "internalType": "uint256",
          "name": "",
          "type": "uint256"
        }
      ],
      "name": "millersList",
      "outputs": [
        {
          "internalType": "address",
          "name": "",
          "type": "address"
        }
      ],
      "stateMutability": "view",
      "type": "function"
    },
    {
      "inputs": [
        {
          "internalType": "bytes32",
          "name": "",
          "type": "bytes32"
        }
      ],
      "name": "orderExists",
      "outputs": [
        {
          "internalType": "bool",
          "name": "",
          "type": "bool"
        }
      ],
      "stateMutability": "view",
      "type": "function"
    },
    {
      "inputs": [
        {
          "internalType": "address",
          "name": "",
          "type": "address"
        },
        {
          "internalType": "uint256",
          "name": "",
          "type": "uint256"
        }
      ],
      "name": "ordersOfFarmer",
      "outputs": [
        {
          "internalType": "address",
          "name": "farmer",
          "type": "address"
        },
        {
          "internalType": "address",
          "name": "fci",
          "type": "address"
        },
        {
          "internalType": "uint256",
          "name": "quantity",
          "type": "uint256"
        },
        {
          "internalType": "uint256",
          "name": "dateTime",
          "type": "uint256"
        },
        {
          "internalType": "enum PaddyProcurement.OrderStatus",
          "name": "status",
          "type": "uint8"
        },
        {
          "internalType": "address",
          "name": "assignedMiller",
          "type": "address"
        },
        {
          "internalType": "bool",
          "name": "qualityAssessed",
          "type": "bool"
        },
        {
          "internalType": "bool",
          "name": "paymentCompleted",
          "type": "bool"
        },
        {
          "internalType": "bool",
          "name": "deliveredToMiller",
          "type": "bool"
        },
        {
          "internalType": "bytes32",
          "name": "orderId",
          "type": "bytes32"
        },
        {
          "internalType": "uint256",
          "name": "assessQualityValue",
          "type": "uint256"
        },
        {
          "internalType": "uint256",
          "name": "deliveryConfirmationDate",
          "type": "uint256"
        }
      ],
      "stateMutability": "view",
      "type": "function"
    },
    {
      "inputs": [
        {
          "internalType": "address",
          "name": "",
          "type": "address"
        },
        {
          "internalType": "uint256",
          "name": "",
          "type": "uint256"
        }
      ],
      "name": "ordersOfMiller",
      "outputs": [
        {
          "internalType": "address",
          "name": "farmer",
          "type": "address"
        },
        {
          "internalType": "address",
          "name": "fci",
          "type": "address"
        },
        {
          "internalType": "uint256",
          "name": "quantity",
          "type": "uint256"
        },
        {
          "internalType": "uint256",
          "name": "dateTime",
          "type": "uint256"
        },
        {
          "internalType": "enum PaddyProcurement.OrderStatus",
          "name": "status",
          "type": "uint8"
        },
        {
          "internalType": "address",
          "name": "assignedMiller",
          "type": "address"
        },
        {
          "internalType": "bool",
          "name": "qualityAssessed",
          "type": "bool"
        },
        {
          "internalType": "bool",
          "name": "paymentCompleted",
          "type": "bool"
        },
        {
          "internalType": "bool",
          "name": "deliveredToMiller",
          "type": "bool"
        },
        {
          "internalType": "bytes32",
          "name": "orderId",
          "type": "bytes32"
        },
        {
          "internalType": "uint256",
          "name": "assessQualityValue",
          "type": "uint256"
        },
        {
          "internalType": "uint256",
          "name": "deliveryConfirmationDate",
          "type": "uint256"
        }
      ],
      "stateMutability": "view",
      "type": "function"
    },
    {
      "inputs": [
        {
          "internalType": "address",
          "name": "_farmer",
          "type": "address"
        }
      ],
      "name": "registerAsFarmer",
      "outputs": [],
      "stateMutability": "nonpayable",
      "type": "function"
    },
    {
      "inputs": [
        {
          "internalType": "address",
          "name": "_miller",
          "type": "address"
        },
        {
          "internalType": "uint256",
          "name": "_maxStorageCapacity",
          "type": "uint256"
        }
      ],
      "name": "registerAsMiller",
      "outputs": [],
      "stateMutability": "nonpayable",
      "type": "function"
    },
    {
      "inputs": [
        {
          "internalType": "address",
          "name": "_fciAddress",
          "type": "address"
        }
      ],
      "name": "registerFCIAddress",
      "outputs": [],
      "stateMutability": "nonpayable",
      "type": "function"
    },
    {
      "inputs": [
        {
          "internalType": "uint256",
          "name": "_targetQuantity",
          "type": "uint256"
        }
      ],
      "name": "setTargetQuantity",
      "outputs": [],
      "stateMutability": "nonpayable",
      "type": "function"
    },
    {
      "inputs": [
        {
          "internalType": "bytes32",
          "name": "_orderId",
          "type": "bytes32"
        }
      ],
      "name": "startDelivery",
      "outputs": [],
      "stateMutability": "nonpayable",
      "type": "function"
    },
    {
      "inputs": [
        {
          "internalType": "address",
          "name": "",
          "type": "address"
        },
        {
          "internalType": "uint256",
          "name": "",
          "type": "uint256"
        }
      ],
      "name": "transactionsOfFCI",
      "outputs": [
        {
          "internalType": "address",
          "name": "farmer",
          "type": "address"
        },
        {
          "internalType": "address",
          "name": "fci",
          "type": "address"
        },
        {
          "internalType": "uint256",
          "name": "quantity",
          "type": "uint256"
        },
        {
          "internalType": "uint256",
          "name": "dateTime",
          "type": "uint256"
        },
        {
          "internalType": "enum PaddyProcurement.OrderStatus",
          "name": "status",
          "type": "uint8"
        },
        {
          "internalType": "address",
          "name": "assignedMiller",
          "type": "address"
        },
        {
          "internalType": "bool",
          "name": "qualityAssessed",
          "type": "bool"
        },
        {
          "internalType": "bool",
          "name": "paymentCompleted",
          "type": "bool"
        },
        {
          "internalType": "bool",
          "name": "deliveredToMiller",
          "type": "bool"
        },
        {
          "internalType": "bytes32",
          "name": "orderId",
          "type": "bytes32"
        },
        {
          "internalType": "uint256",
          "name": "assessQualityValue",
          "type": "uint256"
        },
        {
          "internalType": "uint256",
          "name": "deliveryConfirmationDate",
          "type": "uint256"
        }
      ],
      "stateMutability": "view",
      "type": "function"
    }
  ],
  "bytecode": "0x60806040523480156200001157600080fd5b50620000586040518060400160405280601a81526020017f50616464792050726f637572656d656e74204465706c6f7965640000000000008152506200005e60201b60201c565b62000258565b620000fe8160405160240162000075919062000205565b6040516020818303038152906040527f41304fac000000000000000000000000000000000000000000000000000000007bffffffffffffffffffffffffffffffffffffffffffffffffffffffff19166020820180517bffffffffffffffffffffffffffffffffffffffffffffffffffffffff83818316178352505050506200010160201b60201c565b50565b6200012781620001226200012a60201b62004b28176200014b60201b60201c565b60201c565b50565b60006a636f6e736f6c652e6c6f679050600080835160208501845afa505050565b6200015f60201b62004b4917819050919050565b6200016962000229565b565b600081519050919050565b600082825260208201905092915050565b60005b83811015620001a75780820151818401526020810190506200018a565b60008484015250505050565b6000601f19601f8301169050919050565b6000620001d1826200016b565b620001dd818562000176565b9350620001ef81856020860162000187565b620001fa81620001b3565b840191505092915050565b60006020820190508181036000830152620002218184620001c4565b905092915050565b7f4e487b7100000000000000000000000000000000000000000000000000000000600052605160045260246000fd5b615f1c80620002686000396000f3fe60806040526004361061019b5760003560e01c8063978a22a6116100ec578063b94290691161008a578063f1d51c1811610064578063f1d51c181461066c578063f5cbf5c9146106a9578063fea7d77b146106d4578063ffb4a7cb146106fd5761019b565b8063b9429069146105be578063be9de1d6146105fb578063de1a673e146106435761019b565b80639debd02b116100c65780639debd02b146104dc578063a800c50a14610519578063ad96535714610556578063b66b85ca1461057f5761019b565b8063978a22a61461042e5780639c110fb7146104575780639cdc3f4a146104945761019b565b806346a1d4011161015957806379b142e81161013357806379b142e8146103835780637b96f98b146103c057806384b5e5b0146103e957806386404c87146104055761019b565b806346a1d401146102e95780636c16b545146103125780636d9027c81461033b5761019b565b80629822c2146101a0578063175493f0146101dd578063185b4b301461021b57806320388ea6146102465780632a4d7f36146102835780632cb77e9f146102ac575b600080fd5b3480156101ac57600080fd5b506101c760048036038101906101c29190614c74565b610728565b6040516101d49190614cbc565b60405180910390f35b3480156101e957600080fd5b5061020460048036038101906101ff9190614c74565b610748565b604051610212929190614cf0565b60405180910390f35b34801561022757600080fd5b506102306107cb565b60405161023d9190614f7c565b60405180910390f35b34801561025257600080fd5b5061026d60048036038101906102689190614c74565b610ad7565b60405161027a9190614f7c565b60405180910390f35b34801561028f57600080fd5b506102aa60048036038101906102a59190614fca565b6110d4565b005b3480156102b857600080fd5b506102d360048036038101906102ce919061501d565b611888565b6040516102e09190614cbc565b60405180910390f35b3480156102f557600080fd5b50610310600480360381019061030b9190615076565b6118a8565b005b34801561031e57600080fd5b50610339600480360381019061033491906150c9565b611d64565b005b34801561034757600080fd5b50610362600480360381019061035d91906150c9565b61251b565b60405161037a9c9b9a99989796959493929190615136565b60405180910390f35b34801561038f57600080fd5b506103aa60048036038101906103a591906151f0565b61262c565b6040516103b7919061521d565b60405180910390f35b3480156103cc57600080fd5b506103e760048036038101906103e291906150c9565b61266b565b005b61040360048036038101906103fe9190615238565b6128aa565b005b34801561041157600080fd5b5061042c6004803603810190610427919061501d565b61308c565b005b34801561043a57600080fd5b5061045560048036038101906104509190614c74565b61354d565b005b34801561046357600080fd5b5061047e60048036038101906104799190614c74565b613744565b60405161048b9190614f7c565b60405180910390f35b3480156104a057600080fd5b506104bb60048036038101906104b691906150c9565b613a85565b6040516104d39c9b9a99989796959493929190615136565b60405180910390f35b3480156104e857600080fd5b5061050360048036038101906104fe9190614c74565b613b96565b6040516105109190614f7c565b60405180910390f35b34801561052557600080fd5b50610540600480360381019061053b9190614c74565b613ed7565b60405161054d9190614cbc565b60405180910390f35b34801561056257600080fd5b5061057d6004803603810190610578919061529f565b613ef7565b005b34801561058b57600080fd5b506105a660048036038101906105a19190614c74565b61456e565b6040516105b5939291906152df565b60405180910390f35b3480156105ca57600080fd5b506105e560048036038101906105e09190614c74565b614598565b6040516105f29190614cbc565b60405180910390f35b34801561060757600080fd5b50610622600480360381019061061d91906150c9565b6145b8565b60405161063a9c9b9a99989796959493929190615136565b60405180910390f35b34801561064f57600080fd5b5061066a60048036038101906106659190614c74565b6146c9565b005b34801561067857600080fd5b50610693600480360381019061068e91906151f0565b61489d565b6040516106a0919061521d565b60405180910390f35b3480156106b557600080fd5b506106be6148dc565b6040516106cb919061521d565b60405180910390f35b3480156106e057600080fd5b506106fb60048036038101906106f691906151f0565b614900565b005b34801561070957600080fd5b50610712614aff565b60405161071f919061521d565b60405180910390f35b60036020528060005260406000206000915054906101000a900460ff1681565b6000806000600960008573ffffffffffffffffffffffffffffffffffffffff1673ffffffffffffffffffffffffffffffffffffffff16815260200190815260200160002060405180606001604052908160008201548152602001600182015481526020016002820154815250509050806020015181604001519250925050915091565b606060008054906101000a900473ffffffffffffffffffffffffffffffffffffffff1673ffffffffffffffffffffffffffffffffffffffff163373ffffffffffffffffffffffffffffffffffffffff161461085b576040517f08c379a000000000000000000000000000000000000000000000000000000000815260040161085290615399565b60405180910390fd5b600a60008060009054906101000a900473ffffffffffffffffffffffffffffffffffffffff1673ffffffffffffffffffffffffffffffffffffffff1673ffffffffffffffffffffffffffffffffffffffff168152602001908152602001600020805480602002602001604051908101604052809291908181526020016000905b82821015610ace5783829060005260206000209060080201604051806101800160405290816000820160009054906101000a900473ffffffffffffffffffffffffffffffffffffffff1673ffffffffffffffffffffffffffffffffffffffff1673ffffffffffffffffffffffffffffffffffffffff1681526020016001820160009054906101000a900473ffffffffffffffffffffffffffffffffffffffff1673ffffffffffffffffffffffffffffffffffffffff1673ffffffffffffffffffffffffffffffffffffffff16815260200160028201548152602001600382015481526020016004820160009054906101000a900460ff1660058111156109e4576109e3614d63565b5b60058111156109f6576109f5614d63565b5b81526020016004820160019054906101000a900473ffffffffffffffffffffffffffffffffffffffff1673ffffffffffffffffffffffffffffffffffffffff1673ffffffffffffffffffffffffffffffffffffffff1681526020016004820160159054906101000a900460ff161515151581526020016004820160169054906101000a900460ff161515151581526020016004820160179054906101000a900460ff161515151581526020016005820154815260200160068201548152602001600782015481525050815260200190600101906108db565b50505050905090565b606060008054906101000a900473ffffffffffffffffffffffffffffffffffffffff1673ffffffffffffffffffffffffffffffffffffffff163373ffffffffffffffffffffffffffffffffffffffff161480610b7c5750600360003373ffffffffffffffffffffffffffffffffffffffff1673ffffffffffffffffffffffffffffffffffffffff16815260200190815260200160002060009054906101000a900460ff165b610bbb576040517f08c379a0000000000000000000000000000000000000000000000000000000008152600401610bb29061542b565b60405180910390fd5b600360008373ffffffffffffffffffffffffffffffffffffffff1673ffffffffffffffffffffffffffffffffffffffff16815260200190815260200160002060009054906101000a900460ff16610c47576040517f08c379a0000000000000000000000000000000000000000000000000000000008152600401610c3e90615497565b60405180910390fd5b6000600860008473ffffffffffffffffffffffffffffffffffffffff1673ffffffffffffffffffffffffffffffffffffffff168152602001908152602001600020805480602002602001604051908101604052809291908181526020016000905b82821015610e9b5783829060005260206000209060080201604051806101800160405290816000820160009054906101000a900473ffffffffffffffffffffffffffffffffffffffff1673ffffffffffffffffffffffffffffffffffffffff1673ffffffffffffffffffffffffffffffffffffffff1681526020016001820160009054906101000a900473ffffffffffffffffffffffffffffffffffffffff1673ffffffffffffffffffffffffffffffffffffffff1673ffffffffffffffffffffffffffffffffffffffff16815260200160028201548152602001600382015481526020016004820160009054906101000a900460ff166005811115610db157610db0614d63565b5b6005811115610dc357610dc2614d63565b5b81526020016004820160019054906101000a900473ffffffffffffffffffffffffffffffffffffffff1673ffffffffffffffffffffffffffffffffffffffff1673ffffffffffffffffffffffffffffffffffffffff1681526020016004820160159054906101000a900460ff161515151581526020016004820160169054906101000a900460ff161515151581526020016004820160179054906101000a900460ff16151515158152602001600582015481526020016006820154815260200160078201548152505081526020019060010190610ca8565b5050505090506000805b8251811015610f6b578473ffffffffffffffffffffffffffffffffffffffff16838281518110610ed857610ed76154b7565b5b602002602001015160a0015173ffffffffffffffffffffffffffffffffffffffff16148015610f4a575060046005811115610f1657610f15614d63565b5b838281518110610f2957610f286154b7565b5b6020026020010151608001516005811115610f4757610f46614d63565b5b14155b15610f5e578180610f5a90615515565b9250505b8080600101915050610ea5565b5060008167ffffffffffffffff811115610f8857610f8761555d565b5b604051908082528060200260200182016040528015610fc157816020015b610fae614b53565b815260200190600190039081610fa65790505b5090506000805b84518110156110c7578673ffffffffffffffffffffffffffffffffffffffff16858281518110610ffb57610ffa6154b7565b5b602002602001015160a0015173ffffffffffffffffffffffffffffffffffffffff1614801561106d57506004600581111561103957611038614d63565b5b85828151811061104c5761104b6154b7565b5b602002602001015160800151600581111561106a57611069614d63565b5b14155b156110ba57848181518110611085576110846154b7565b5b60200260200101518383815181106110a05761109f6154b7565b5b602002602001018190525081806110b690615515565b9250505b8080600101915050610fc8565b5081945050505050919050565b60008054906101000a900473ffffffffffffffffffffffffffffffffffffffff1673ffffffffffffffffffffffffffffffffffffffff163373ffffffffffffffffffffffffffffffffffffffff1614611162576040517f08c379a000000000000000000000000000000000000000000000000000000000815260040161115990615399565b60405180910390fd5b600360008273ffffffffffffffffffffffffffffffffffffffff1673ffffffffffffffffffffffffffffffffffffffff16815260200190815260200160002060009054906101000a900460ff166111ee576040517f08c379a00000000000000000000000000000000000000000000000000000000081526004016111e5906155d8565b60405180910390fd5b6000600760008573ffffffffffffffffffffffffffffffffffffffff1673ffffffffffffffffffffffffffffffffffffffff168152602001908152602001600020905060005b81805490508110156118815783828281548110611254576112536154b7565b5b9060005260206000209060080201600501541480156112c857506001600581111561128257611281614d63565b5b828281548110611295576112946154b7565b5b906000526020600020906008020160040160009054906101000a900460ff1660058111156112c6576112c5614d63565b5b145b1561187457620546008282815481106112e4576112e36154b7565b5b90600052602060002090600802016003015461130091906155f8565b421115611342576040517f08c379a00000000000000000000000000000000000000000000000000000000081526004016113399061569e565b60405180910390fd5b82828281548110611356576113556154b7565b5b906000526020600020906008020160040160016101000a81548173ffffffffffffffffffffffffffffffffffffffff021916908373ffffffffffffffffffffffffffffffffffffffff16021790555060028282815481106113ba576113b96154b7565b5b906000526020600020906008020160040160006101000a81548160ff021916908360058111156113ed576113ec614d63565b5b0217905550600860008473ffffffffffffffffffffffffffffffffffffffff1673ffffffffffffffffffffffffffffffffffffffff168152602001908152602001600020828281548110611444576114436154b7565b5b906000526020600020906008020190806001815401808255809150506001900390600052602060002090600802016000909190919091506000820160009054906101000a900473ffffffffffffffffffffffffffffffffffffffff168160000160006101000a81548173ffffffffffffffffffffffffffffffffffffffff021916908373ffffffffffffffffffffffffffffffffffffffff1602179055506001820160009054906101000a900473ffffffffffffffffffffffffffffffffffffffff168160010160006101000a81548173ffffffffffffffffffffffffffffffffffffffff021916908373ffffffffffffffffffffffffffffffffffffffff16021790555060028201548160020155600382015481600301556004820160009054906101000a900460ff168160040160006101000a81548160ff0219169083600581111561159557611594614d63565b5b02179055506004820160019054906101000a900473ffffffffffffffffffffffffffffffffffffffff168160040160016101000a81548173ffffffffffffffffffffffffffffffffffffffff021916908373ffffffffffffffffffffffffffffffffffffffff1602179055506004820160159054906101000a900460ff168160040160156101000a81548160ff0219169083151502179055506004820160169054906101000a900460ff168160040160166101000a81548160ff0219169083151502179055506004820160179054906101000a900460ff168160040160176101000a81548160ff02191690831515021790555060058201548160050155600682015481600601556007820154816007015550506000600a60008060009054906101000a900473ffffffffffffffffffffffffffffffffffffffff1673ffffffffffffffffffffffffffffffffffffffff1673ffffffffffffffffffffffffffffffffffffffff168152602001908152602001600020905060005b8180549050811015611808578582828154811061172f5761172e6154b7565b5b906000526020600020906008020160050154036117fb578482828154811061175a576117596154b7565b5b906000526020600020906008020160040160016101000a81548173ffffffffffffffffffffffffffffffffffffffff021916908373ffffffffffffffffffffffffffffffffffffffff16021790555060028282815481106117be576117bd6154b7565b5b906000526020600020906008020160040160006101000a81548160ff021916908360058111156117f1576117f0614d63565b5b0217905550611808565b808060010191505061170f565b508373ffffffffffffffffffffffffffffffffffffffff168673ffffffffffffffffffffffffffffffffffffffff167fc33034f11e74148d192f7bb138128c9467a27564b7632a7883081e259e4991368760405161186691906156be565b60405180910390a350611881565b8080600101915050611234565b5050505050565b60066020528060005260406000206000915054906101000a900460ff1681565b60008054906101000a900473ffffffffffffffffffffffffffffffffffffffff1673ffffffffffffffffffffffffffffffffffffffff163373ffffffffffffffffffffffffffffffffffffffff1614611936576040517f08c379a000000000000000000000000000000000000000000000000000000000815260040161192d90615399565b60405180910390fd5b6000600760008573ffffffffffffffffffffffffffffffffffffffff1673ffffffffffffffffffffffffffffffffffffffff168152602001908152602001600020905060005b8180549050811015611d5d578382828154811061199c5761199b6154b7565b5b906000526020600020906008020160050154148015611a105750600060058111156119ca576119c9614d63565b5b8282815481106119dd576119dc6154b7565b5b906000526020600020906008020160040160009054906101000a900460ff166005811115611a0e57611a0d614d63565b5b145b15611d505762054600828281548110611a2c57611a2b6154b7565b5b906000526020600020906008020160030154611a4891906155f8565b421115611a8a576040517f08c379a0000000000000000000000000000000000000000000000000000000008152600401611a819061574b565b60405180910390fd5b6001828281548110611a9f57611a9e6154b7565b5b906000526020600020906008020160040160156101000a81548160ff0219169083151502179055506001828281548110611adc57611adb6154b7565b5b906000526020600020906008020160040160006101000a81548160ff02191690836005811115611b0f57611b0e614d63565b5b021790555082828281548110611b2857611b276154b7565b5b9060005260206000209060080201600601819055506000600a60008060009054906101000a900473ffffffffffffffffffffffffffffffffffffffff1673ffffffffffffffffffffffffffffffffffffffff1673ffffffffffffffffffffffffffffffffffffffff168152602001908152602001600020905060005b8180549050811015611ca05785828281548110611bc457611bc36154b7565b5b90600052602060002090600802016005015403611c93576001828281548110611bf057611bef6154b7565b5b906000526020600020906008020160040160156101000a81548160ff0219169083151502179055506001828281548110611c2d57611c2c6154b7565b5b906000526020600020906008020160040160006101000a81548160ff02191690836005811115611c6057611c5f614d63565b5b021790555084828281548110611c7957611c786154b7565b5b906000526020600020906008020160060181905550611ca0565b8080600101915050611ba4565b50828281548110611cb457611cb36154b7565b5b906000526020600020906008020160000160009054906101000a900473ffffffffffffffffffffffffffffffffffffffff1673ffffffffffffffffffffffffffffffffffffffff163373ffffffffffffffffffffffffffffffffffffffff167f03393405d7395a0c4d585a29de9f0018db4a7348c4fb7789e78f9434be7cca1687604051611d4291906156be565b60405180910390a350611d5d565b808060010191505061197c565b5050505050565b60008054906101000a900473ffffffffffffffffffffffffffffffffffffffff1673ffffffffffffffffffffffffffffffffffffffff163373ffffffffffffffffffffffffffffffffffffffff161480611e075750600460003373ffffffffffffffffffffffffffffffffffffffff1673ffffffffffffffffffffffffffffffffffffffff16815260200190815260200160002060009054906101000a900460ff165b611e46576040517f08c379a0000000000000000000000000000000000000000000000000000000008152600401611e3d906157dd565b60405180910390fd5b600460003373ffffffffffffffffffffffffffffffffffffffff1673ffffffffffffffffffffffffffffffffffffffff16815260200190815260200160002060009054906101000a900460ff16611ed2576040517f08c379a0000000000000000000000000000000000000000000000000000000008152600401611ec990615849565b60405180910390fd5b60008111611f15576040517f08c379a0000000000000000000000000000000000000000000000000000000008152600401611f0c906158b5565b60405180910390fd5b6000338383604051602001611f2c9392919061593e565b60405160208183030381529060405280519060200120905060006040518061018001604052803373ffffffffffffffffffffffffffffffffffffffff1681526020018573ffffffffffffffffffffffffffffffffffffffff16815260200184815260200142815260200160006005811115611faa57611fa9614d63565b5b8152602001600073ffffffffffffffffffffffffffffffffffffffff1681526020016000151581526020016000151581526020016000151581526020018381526020016000815260200160008152509050600760003373ffffffffffffffffffffffffffffffffffffffff1673ffffffffffffffffffffffffffffffffffffffff16815260200190815260200160002081908060018154018082558091505060019003906000526020600020906008020160009091909190915060008201518160000160006101000a81548173ffffffffffffffffffffffffffffffffffffffff021916908373ffffffffffffffffffffffffffffffffffffffff16021790555060208201518160010160006101000a81548173ffffffffffffffffffffffffffffffffffffffff021916908373ffffffffffffffffffffffffffffffffffffffff160217905550604082015181600201556060820151816003015560808201518160040160006101000a81548160ff0219169083600581111561213157612130614d63565b5b021790555060a08201518160040160016101000a81548173ffffffffffffffffffffffffffffffffffffffff021916908373ffffffffffffffffffffffffffffffffffffffff16021790555060c08201518160040160156101000a81548160ff02191690831515021790555060e08201518160040160166101000a81548160ff0219169083151502179055506101008201518160040160176101000a81548160ff0219169083151502179055506101208201518160050155610140820151816006015561016082015181600701555050600a60008060009054906101000a900473ffffffffffffffffffffffffffffffffffffffff1673ffffffffffffffffffffffffffffffffffffffff1673ffffffffffffffffffffffffffffffffffffffff16815260200190815260200160002081908060018154018082558091505060019003906000526020600020906008020160009091909190915060008201518160000160006101000a81548173ffffffffffffffffffffffffffffffffffffffff021916908373ffffffffffffffffffffffffffffffffffffffff16021790555060208201518160010160006101000a81548173ffffffffffffffffffffffffffffffffffffffff021916908373ffffffffffffffffffffffffffffffffffffffff160217905550604082015181600201556060820151816003015560808201518160040160006101000a81548160ff0219169083600581111561235857612357614d63565b5b021790555060a08201518160040160016101000a81548173ffffffffffffffffffffffffffffffffffffffff021916908373ffffffffffffffffffffffffffffffffffffffff16021790555060c08201518160040160156101000a81548160ff02191690831515021790555060e08201518160040160166101000a81548160ff0219169083151502179055506101008201518160040160176101000a81548160ff021916908315150217905550610120820151816005015561014082015181600601556101608201518160070155505060016006600084815260200190815260200160002060006101000a81548160ff0219169083151502179055508373ffffffffffffffffffffffffffffffffffffffff163373ffffffffffffffffffffffffffffffffffffffff167f5e70ce47de5651da95b32c055da196557493bdc1c460b116aaef9e18e53cfb8285426000876040516124b8949392919061597b565b60405180910390a36205460081606001516124d391906155f8565b421115612515576040517f08c379a000000000000000000000000000000000000000000000000000000000815260040161250c90615a32565b60405180910390fd5b50505050565b6008602052816000526040600020818154811061253757600080fd5b9060005260206000209060080201600091509150508060000160009054906101000a900473ffffffffffffffffffffffffffffffffffffffff16908060010160009054906101000a900473ffffffffffffffffffffffffffffffffffffffff16908060020154908060030154908060040160009054906101000a900460ff16908060040160019054906101000a900473ffffffffffffffffffffffffffffffffffffffff16908060040160159054906101000a900460ff16908060040160169054906101000a900460ff16908060040160179054906101000a900460ff1690806005015490806006015490806007015490508c565b6002818154811061263c57600080fd5b906000526020600020016000915054906101000a900473ffffffffffffffffffffffffffffffffffffffff1681565b600560008373ffffffffffffffffffffffffffffffffffffffff1673ffffffffffffffffffffffffffffffffffffffff16815260200190815260200160002060009054906101000a900460ff1615801561270f5750600460008373ffffffffffffffffffffffffffffffffffffffff1673ffffffffffffffffffffffffffffffffffffffff16815260200190815260200160002060009054906101000a900460ff16155b80156127655750600360008373ffffffffffffffffffffffffffffffffffffffff1673ffffffffffffffffffffffffffffffffffffffff16815260200190815260200160002060009054906101000a900460ff16155b6127a4576040517f08c379a000000000000000000000000000000000000000000000000000000000815260040161279b90615a9e565b60405180910390fd5b6001600360008473ffffffffffffffffffffffffffffffffffffffff1673ffffffffffffffffffffffffffffffffffffffff16815260200190815260200160002060006101000a81548160ff0219169083151502179055506002829080600181540180825580915050600190039060005260206000200160009091909190916101000a81548173ffffffffffffffffffffffffffffffffffffffff021916908373ffffffffffffffffffffffffffffffffffffffff16021790555080600960008473ffffffffffffffffffffffffffffffffffffffff1673ffffffffffffffffffffffffffffffffffffffff168152602001908152602001600020600001819055505050565b60008054906101000a900473ffffffffffffffffffffffffffffffffffffffff1673ffffffffffffffffffffffffffffffffffffffff163373ffffffffffffffffffffffffffffffffffffffff1614612938576040517f08c379a000000000000000000000000000000000000000000000000000000000815260040161292f90615399565b60405180910390fd5b6000600760008673ffffffffffffffffffffffffffffffffffffffff1673ffffffffffffffffffffffffffffffffffffffff16815260200190815260200160002090506000806000905060005b838054905081101561304257868482815481106129a5576129a46154b7565b5b906000526020600020906008020160050154148015612a195750600460058111156129d3576129d2614d63565b5b8482815481106129e6576129e56154b7565b5b906000526020600020906008020160040160009054906101000a900460ff166005811115612a1757612a16614d63565b5b145b1561303557838181548110612a3157612a306154b7565b5b906000526020600020906008020160040160159054906101000a900460ff16612a8f576040517f08c379a0000000000000000000000000000000000000000000000000000000008152600401612a8690615b0a565b60405180910390fd5b838181548110612aa257612aa16154b7565b5b906000526020600020906008020160040160169054906101000a900460ff1615612b01576040517f08c379a0000000000000000000000000000000000000000000000000000000008152600401612af890615b9c565b60405180910390fd5b60008510158015612b135750601e8511155b15612b38576064601987612b279190615bbc565b612b319190615c2d565b9250612bcb565b601f8510158015612b4a575060418511155b15612b6357600186612b5c9190615bbc565b9250612bca565b60428510158015612b75575060648511155b15612b8e57600286612b879190615bbc565b9250612bc9565b6040517f08c379a0000000000000000000000000000000000000000000000000000000008152600401612bc090615caa565b60405180910390fd5b5b5b6001848281548110612be057612bdf6154b7565b5b906000526020600020906008020160040160166101000a81548160ff0219169083151502179055506005848281548110612c1d57612c1c6154b7565b5b906000526020600020906008020160040160006101000a81548160ff02191690836005811115612c5057612c4f614d63565b5b0217905550838181548110612c6857612c676154b7565b5b906000526020600020906008020160000160009054906101000a900473ffffffffffffffffffffffffffffffffffffffff1673ffffffffffffffffffffffffffffffffffffffff163373ffffffffffffffffffffffffffffffffffffffff167f64d831a72eb116207e4c18a6c1c8b5c01e67dc3f6cd26e8866b95e5a5ad5cf12858a604051612cf8929190615cca565b60405180910390a36000848281548110612d1557612d146154b7565b5b906000526020600020906008020160040160019054906101000a900473ffffffffffffffffffffffffffffffffffffffff1690506000600860008373ffffffffffffffffffffffffffffffffffffffff1673ffffffffffffffffffffffffffffffffffffffff168152602001908152602001600020905060005b8180549050811015612e625789828281548110612daf57612dae6154b7565b5b90600052602060002090600802016005015403612e55576001828281548110612ddb57612dda6154b7565b5b906000526020600020906008020160040160166101000a81548160ff0219169083151502179055506005828281548110612e1857612e176154b7565b5b906000526020600020906008020160040160006101000a81548160ff02191690836005811115612e4b57612e4a614d63565b5b0217905550612e62565b8080600101915050612d8f565b506000600a60008060009054906101000a900473ffffffffffffffffffffffffffffffffffffffff1673ffffffffffffffffffffffffffffffffffffffff1673ffffffffffffffffffffffffffffffffffffffff168152602001908152602001600020905060005b8180549050811015612f9d578a828281548110612eea57612ee96154b7565b5b90600052602060002090600802016005015403612f90576001828281548110612f1657612f156154b7565b5b906000526020600020906008020160040160166101000a81548160ff0219169083151502179055506005828281548110612f5357612f526154b7565b5b906000526020600020906008020160040160006101000a81548160ff02191690836005811115612f8657612f85614d63565b5b0217905550612f9d565b8080600101915050612eca565b50868481548110612fb157612fb06154b7565b5b906000526020600020906008020160000160009054906101000a900473ffffffffffffffffffffffffffffffffffffffff1673ffffffffffffffffffffffffffffffffffffffff166108fc879081150290604051600060405180830381858888f19350505050158015613028573d6000803e3d6000fd5b5060019450505050613042565b8080600101915050612985565b5080613083576040517f08c379a000000000000000000000000000000000000000000000000000000000815260040161307a90615d65565b60405180910390fd5b50505050505050565b60008054906101000a900473ffffffffffffffffffffffffffffffffffffffff1673ffffffffffffffffffffffffffffffffffffffff163373ffffffffffffffffffffffffffffffffffffffff16148061312f5750600460003373ffffffffffffffffffffffffffffffffffffffff1673ffffffffffffffffffffffffffffffffffffffff16815260200190815260200160002060009054906101000a900460ff165b61316e576040517f08c379a0000000000000000000000000000000000000000000000000000000008152600401613165906157dd565b60405180910390fd5b6000600760003373ffffffffffffffffffffffffffffffffffffffff1673ffffffffffffffffffffffffffffffffffffffff168152602001908152602001600020905060005b818054905081101561354857828282815481106131d4576131d36154b7565b5b90600052602060002090600802016005015414801561324857506002600581111561320257613201614d63565b5b828281548110613215576132146154b7565b5b906000526020600020906008020160040160009054906101000a900460ff16600581111561324657613245614d63565b5b145b1561353b5762054600828281548110613264576132636154b7565b5b90600052602060002090600802016003015461328091906155f8565b4211156132c2576040517f08c379a00000000000000000000000000000000000000000000000000000000081526004016132b990615dd1565b60405180910390fd5b60038282815481106132d7576132d66154b7565b5b906000526020600020906008020160040160006101000a81548160ff0219169083600581111561330a57613309614d63565b5b02179055506000828281548110613324576133236154b7565b5b906000526020600020906008020160040160019054906101000a900473ffffffffffffffffffffffffffffffffffffffff1690506000600860008373ffffffffffffffffffffffffffffffffffffffff1673ffffffffffffffffffffffffffffffffffffffff168152602001908152602001600020905060005b818054905081101561343457858282815481106133be576133bd6154b7565b5b906000526020600020906008020160050154036134275760038282815481106133ea576133e96154b7565b5b906000526020600020906008020160040160006101000a81548160ff0219169083600581111561341d5761341c614d63565b5b0217905550613434565b808060010191505061339e565b506000600a60008060009054906101000a900473ffffffffffffffffffffffffffffffffffffffff1673ffffffffffffffffffffffffffffffffffffffff1673ffffffffffffffffffffffffffffffffffffffff168152602001908152602001600020905060005b818054905081101561353257868282815481106134bc576134bb6154b7565b5b906000526020600020906008020160050154036135255760038282815481106134e8576134e76154b7565b5b906000526020600020906008020160040160006101000a81548160ff0219169083600581111561351b5761351a614d63565b5b0217905550613532565b808060010191505061349c565b50505050613548565b80806001019150506131b4565b505050565b600560008273ffffffffffffffffffffffffffffffffffffffff1673ffffffffffffffffffffffffffffffffffffffff16815260200190815260200160002060009054906101000a900460ff161580156135f15750600360008273ffffffffffffffffffffffffffffffffffffffff1673ffffffffffffffffffffffffffffffffffffffff16815260200190815260200160002060009054906101000a900460ff16155b80156136475750600460008273ffffffffffffffffffffffffffffffffffffffff1673ffffffffffffffffffffffffffffffffffffffff16815260200190815260200160002060009054906101000a900460ff16155b613686576040517f08c379a000000000000000000000000000000000000000000000000000000000815260040161367d90615a9e565b60405180910390fd5b6001600460008373ffffffffffffffffffffffffffffffffffffffff1673ffffffffffffffffffffffffffffffffffffffff16815260200190815260200160002060006101000a81548160ff0219169083151502179055506001819080600181540180825580915050600190039060005260206000200160009091909190916101000a81548173ffffffffffffffffffffffffffffffffffffffff021916908373ffffffffffffffffffffffffffffffffffffffff16021790555050565b606060008054906101000a900473ffffffffffffffffffffffffffffffffffffffff1673ffffffffffffffffffffffffffffffffffffffff163373ffffffffffffffffffffffffffffffffffffffff1614806137e95750600360003373ffffffffffffffffffffffffffffffffffffffff1673ffffffffffffffffffffffffffffffffffffffff16815260200190815260200160002060009054906101000a900460ff165b613828576040517f08c379a000000000000000000000000000000000000000000000000000000000815260040161381f9061542b565b60405180910390fd5b600860008373ffffffffffffffffffffffffffffffffffffffff1673ffffffffffffffffffffffffffffffffffffffff168152602001908152602001600020805480602002602001604051908101604052809291908181526020016000905b82821015613a7a5783829060005260206000209060080201604051806101800160405290816000820160009054906101000a900473ffffffffffffffffffffffffffffffffffffffff1673ffffffffffffffffffffffffffffffffffffffff1673ffffffffffffffffffffffffffffffffffffffff1681526020016001820160009054906101000a900473ffffffffffffffffffffffffffffffffffffffff1673ffffffffffffffffffffffffffffffffffffffff1673ffffffffffffffffffffffffffffffffffffffff16815260200160028201548152602001600382015481526020016004820160009054906101000a900460ff1660058111156139905761398f614d63565b5b60058111156139a2576139a1614d63565b5b81526020016004820160019054906101000a900473ffffffffffffffffffffffffffffffffffffffff1673ffffffffffffffffffffffffffffffffffffffff1673ffffffffffffffffffffffffffffffffffffffff1681526020016004820160159054906101000a900460ff161515151581526020016004820160169054906101000a900460ff161515151581526020016004820160179054906101000a900460ff16151515158152602001600582015481526020016006820154815260200160078201548152505081526020019060010190613887565b505050509050919050565b600a6020528160005260406000208181548110613aa157600080fd5b9060005260206000209060080201600091509150508060000160009054906101000a900473ffffffffffffffffffffffffffffffffffffffff16908060010160009054906101000a900473ffffffffffffffffffffffffffffffffffffffff16908060020154908060030154908060040160009054906101000a900460ff16908060040160019054906101000a900473ffffffffffffffffffffffffffffffffffffffff16908060040160159054906101000a900460ff16908060040160169054906101000a900460ff16908060040160179054906101000a900460ff1690806005015490806006015490806007015490508c565b606060008054906101000a900473ffffffffffffffffffffffffffffffffffffffff1673ffffffffffffffffffffffffffffffffffffffff163373ffffffffffffffffffffffffffffffffffffffff161480613c3b5750600460003373ffffffffffffffffffffffffffffffffffffffff1673ffffffffffffffffffffffffffffffffffffffff16815260200190815260200160002060009054906101000a900460ff165b613c7a576040517f08c379a0000000000000000000000000000000000000000000000000000000008152600401613c71906157dd565b60405180910390fd5b600760008373ffffffffffffffffffffffffffffffffffffffff1673ffffffffffffffffffffffffffffffffffffffff168152602001908152602001600020805480602002602001604051908101604052809291908181526020016000905b82821015613ecc5783829060005260206000209060080201604051806101800160405290816000820160009054906101000a900473ffffffffffffffffffffffffffffffffffffffff1673ffffffffffffffffffffffffffffffffffffffff1673ffffffffffffffffffffffffffffffffffffffff1681526020016001820160009054906101000a900473ffffffffffffffffffffffffffffffffffffffff1673ffffffffffffffffffffffffffffffffffffffff1673ffffffffffffffffffffffffffffffffffffffff16815260200160028201548152602001600382015481526020016004820160009054906101000a900460ff166005811115613de257613de1614d63565b5b6005811115613df457613df3614d63565b5b81526020016004820160019054906101000a900473ffffffffffffffffffffffffffffffffffffffff1673ffffffffffffffffffffffffffffffffffffffff1673ffffffffffffffffffffffffffffffffffffffff1681526020016004820160159054906101000a900460ff161515151581526020016004820160169054906101000a900460ff161515151581526020016004820160179054906101000a900460ff16151515158152602001600582015481526020016006820154815260200160078201548152505081526020019060010190613cd9565b505050509050919050565b60056020528060005260406000206000915054906101000a900460ff1681565b60008054906101000a900473ffffffffffffffffffffffffffffffffffffffff1673ffffffffffffffffffffffffffffffffffffffff163373ffffffffffffffffffffffffffffffffffffffff161480613f9a5750600360003373ffffffffffffffffffffffffffffffffffffffff1673ffffffffffffffffffffffffffffffffffffffff16815260200190815260200160002060009054906101000a900460ff165b613fd9576040517f08c379a0000000000000000000000000000000000000000000000000000000008152600401613fd09061542b565b60405180910390fd5b6000600760008473ffffffffffffffffffffffffffffffffffffffff1673ffffffffffffffffffffffffffffffffffffffff168152602001908152602001600020905060005b8180549050811015614568578282828154811061403f5761403e6154b7565b5b9060005260206000209060080201600501541480156140b357506003600581111561406d5761406c614d63565b5b8282815481106140805761407f6154b7565b5b906000526020600020906008020160040160009054906101000a900460ff1660058111156140b1576140b0614d63565b5b145b801561412e57503373ffffffffffffffffffffffffffffffffffffffff168282815481106140e4576140e36154b7565b5b906000526020600020906008020160040160019054906101000a900473ffffffffffffffffffffffffffffffffffffffff1673ffffffffffffffffffffffffffffffffffffffff16145b1561455b576001828281548110614148576141476154b7565b5b906000526020600020906008020160040160176101000a81548160ff0219169083151502179055506004828281548110614185576141846154b7565b5b906000526020600020906008020160040160006101000a81548160ff021916908360058111156141b8576141b7614d63565b5b0217905550428282815481106141d1576141d06154b7565b5b90600052602060002090600802016007018190555060008282815481106141fb576141fa6154b7565b5b906000526020600020906008020160040160019054906101000a900473ffffffffffffffffffffffffffffffffffffffff169050828281548110614242576142416154b7565b5b906000526020600020906008020160020154600960008373ffffffffffffffffffffffffffffffffffffffff1673ffffffffffffffffffffffffffffffffffffffff16815260200190815260200160002060020160008282546142a59190615df1565b925050819055506000600860008373ffffffffffffffffffffffffffffffffffffffff1673ffffffffffffffffffffffffffffffffffffffff168152602001908152602001600020905060005b81805490508110156143ee5785828281548110614312576143116154b7565b5b906000526020600020906008020160050154036143e157600182828154811061433e5761433d6154b7565b5b906000526020600020906008020160040160176101000a81548160ff021916908315150217905550600482828154811061437b5761437a6154b7565b5b906000526020600020906008020160040160006101000a81548160ff021916908360058111156143ae576143ad614d63565b5b0217905550428282815481106143c7576143c66154b7565b5b9060005260206000209060080201600701819055506143ee565b80806001019150506142f2565b506000600a60008060009054906101000a900473ffffffffffffffffffffffffffffffffffffffff1673ffffffffffffffffffffffffffffffffffffffff1673ffffffffffffffffffffffffffffffffffffffff168152602001908152602001600020905060005b81805490508110156145525786828281548110614476576144756154b7565b5b906000526020600020906008020160050154036145455760018282815481106144a2576144a16154b7565b5b906000526020600020906008020160040160176101000a81548160ff02191690831515021790555060048282815481106144df576144de6154b7565b5b906000526020600020906008020160040160006101000a81548160ff0219169083600581111561451257614511614d63565b5b02179055504282828154811061452b5761452a6154b7565b5b906000526020600020906008020160070181905550614552565b8080600101915050614456565b50505050614568565b808060010191505061401f565b50505050565b60096020528060005260406000206000915090508060000154908060010154908060020154905083565b60046020528060005260406000206000915054906101000a900460ff1681565b600760205281600052604060002081815481106145d457600080fd5b9060005260206000209060080201600091509150508060000160009054906101000a900473ffffffffffffffffffffffffffffffffffffffff16908060010160009054906101000a900473ffffffffffffffffffffffffffffffffffffffff16908060020154908060030154908060040160009054906101000a900460ff16908060040160019054906101000a900473ffffffffffffffffffffffffffffffffffffffff16908060040160159054906101000a900460ff16908060040160169054906101000a900460ff16908060040160179054906101000a900460ff1690806005015490806006015490806007015490508c565b600460008273ffffffffffffffffffffffffffffffffffffffff1673ffffffffffffffffffffffffffffffffffffffff16815260200190815260200160002060009054906101000a900460ff1615801561476d5750600360008273ffffffffffffffffffffffffffffffffffffffff1673ffffffffffffffffffffffffffffffffffffffff16815260200190815260200160002060009054906101000a900460ff16155b80156147c35750600560008273ffffffffffffffffffffffffffffffffffffffff1673ffffffffffffffffffffffffffffffffffffffff16815260200190815260200160002060009054906101000a900460ff16155b614802576040517f08c379a00000000000000000000000000000000000000000000000000000000081526004016147f990615a9e565b60405180910390fd5b6001600560008373ffffffffffffffffffffffffffffffffffffffff1673ffffffffffffffffffffffffffffffffffffffff16815260200190815260200160002060006101000a81548160ff021916908315150217905550806000806101000a81548173ffffffffffffffffffffffffffffffffffffffff021916908373ffffffffffffffffffffffffffffffffffffffff16021790555050565b600181815481106148ad57600080fd5b906000526020600020016000915054906101000a900473ffffffffffffffffffffffffffffffffffffffff1681565b60008054906101000a900473ffffffffffffffffffffffffffffffffffffffff1681565b60008054906101000a900473ffffffffffffffffffffffffffffffffffffffff1673ffffffffffffffffffffffffffffffffffffffff163373ffffffffffffffffffffffffffffffffffffffff1614806149a35750600360003373ffffffffffffffffffffffffffffffffffffffff1673ffffffffffffffffffffffffffffffffffffffff16815260200190815260200160002060009054906101000a900460ff165b6149e2576040517f08c379a00000000000000000000000000000000000000000000000000000000081526004016149d99061542b565b60405180910390fd5b600360003373ffffffffffffffffffffffffffffffffffffffff1673ffffffffffffffffffffffffffffffffffffffff16815260200190815260200160002060009054906101000a900460ff16614a6e576040517f08c379a0000000000000000000000000000000000000000000000000000000008152600401614a6590615e97565b60405180910390fd5b80600960003373ffffffffffffffffffffffffffffffffffffffff1673ffffffffffffffffffffffffffffffffffffffff1681526020019081526020016000206001018190555080600960003373ffffffffffffffffffffffffffffffffffffffff1673ffffffffffffffffffffffffffffffffffffffff1681526020019081526020016000206002018190555050565b60008060009054906101000a900473ffffffffffffffffffffffffffffffffffffffff16905090565b60006a636f6e736f6c652e6c6f679050600080835160208501845afa505050565b614b51615eb7565b565b604051806101800160405280600073ffffffffffffffffffffffffffffffffffffffff168152602001600073ffffffffffffffffffffffffffffffffffffffff168152602001600081526020016000815260200160006005811115614bbb57614bba614d63565b5b8152602001600073ffffffffffffffffffffffffffffffffffffffff1681526020016000151581526020016000151581526020016000151581526020016000801916815260200160008152602001600081525090565b600080fd5b600073ffffffffffffffffffffffffffffffffffffffff82169050919050565b6000614c4182614c16565b9050919050565b614c5181614c36565b8114614c5c57600080fd5b50565b600081359050614c6e81614c48565b92915050565b600060208284031215614c8a57614c89614c11565b5b6000614c9884828501614c5f565b91505092915050565b60008115159050919050565b614cb681614ca1565b82525050565b6000602082019050614cd16000830184614cad565b92915050565b6000819050919050565b614cea81614cd7565b82525050565b6000604082019050614d056000830185614ce1565b614d126020830184614ce1565b9392505050565b600081519050919050565b600082825260208201905092915050565b6000819050602082019050919050565b614d4e81614c36565b82525050565b614d5d81614cd7565b82525050565b7f4e487b7100000000000000000000000000000000000000000000000000000000600052602160045260246000fd5b60068110614da357614da2614d63565b5b50565b6000819050614db482614d92565b919050565b6000614dc482614da6565b9050919050565b614dd481614db9565b82525050565b614de381614ca1565b82525050565b6000819050919050565b614dfc81614de9565b82525050565b61018082016000820151614e196000850182614d45565b506020820151614e2c6020850182614d45565b506040820151614e3f6040850182614d54565b506060820151614e526060850182614d54565b506080820151614e656080850182614dcb565b5060a0820151614e7860a0850182614d45565b5060c0820151614e8b60c0850182614dda565b5060e0820151614e9e60e0850182614dda565b50610100820151614eb3610100850182614dda565b50610120820151614ec8610120850182614df3565b50610140820151614edd610140850182614d54565b50610160820151614ef2610160850182614d54565b50505050565b6000614f048383614e02565b6101808301905092915050565b6000602082019050919050565b6000614f2982614d19565b614f338185614d24565b9350614f3e83614d35565b8060005b83811015614f6f578151614f568882614ef8565b9750614f6183614f11565b925050600181019050614f42565b5085935050505092915050565b60006020820190508181036000830152614f968184614f1e565b905092915050565b614fa781614de9565b8114614fb257600080fd5b50565b600081359050614fc481614f9e565b92915050565b600080600060608486031215614fe357614fe2614c11565b5b6000614ff186828701614c5f565b935050602061500286828701614fb5565b925050604061501386828701614c5f565b9150509250925092565b60006020828403121561503357615032614c11565b5b600061504184828501614fb5565b91505092915050565b61505381614cd7565b811461505e57600080fd5b50565b6000813590506150708161504a565b92915050565b60008060006060848603121561508f5761508e614c11565b5b600061509d86828701614c5f565b93505060206150ae86828701614fb5565b92505060406150bf86828701615061565b9150509250925092565b600080604083850312156150e0576150df614c11565b5b60006150ee85828601614c5f565b92505060206150ff85828601615061565b9150509250929050565b61511281614c36565b82525050565b61512181614db9565b82525050565b61513081614de9565b82525050565b60006101808201905061514c600083018f615109565b615159602083018e615109565b615166604083018d614ce1565b615173606083018c614ce1565b615180608083018b615118565b61518d60a083018a615109565b61519a60c0830189614cad565b6151a760e0830188614cad565b6151b5610100830187614cad565b6151c3610120830186615127565b6151d1610140830185614ce1565b6151df610160830184614ce1565b9d9c50505050505050505050505050565b60006020828403121561520657615205614c11565b5b600061521484828501615061565b91505092915050565b60006020820190506152326000830184615109565b92915050565b6000806000806080858703121561525257615251614c11565b5b600061526087828801614c5f565b945050602061527187828801614fb5565b935050604061528287828801615061565b925050606061529387828801615061565b91505092959194509250565b600080604083850312156152b6576152b5614c11565b5b60006152c485828601614c5f565b92505060206152d585828601614fb5565b9150509250929050565b60006060820190506152f46000830186614ce1565b6153016020830185614ce1565b61530e6040830184614ce1565b949350505050565b600082825260208201905092915050565b7f4f6e6c792046434920636f6e74726163742063616e2063616c6c20746869732060008201527f66756e6374696f6e000000000000000000000000000000000000000000000000602082015250565b6000615383602883615316565b915061538e82615327565b604082019050919050565b600060208201905081810360008301526153b281615376565b9050919050565b7f4f6e6c7920464349206f72204d696c6c657220636f6e74726163742063616e2060008201527f63616c6c20746869732066756e6374696f6e0000000000000000000000000000602082015250565b6000615415603283615316565b9150615420826153b9565b604082019050919050565b6000602082019050818103600083015261544481615408565b9050919050565b7f41646472657373206973206e6f742061204d696c6c6572000000000000000000600082015250565b6000615481601783615316565b915061548c8261544b565b602082019050919050565b600060208201905081810360008301526154b081615474565b9050919050565b7f4e487b7100000000000000000000000000000000000000000000000000000000600052603260045260246000fd5b7f4e487b7100000000000000000000000000000000000000000000000000000000600052601160045260246000fd5b600061552082614cd7565b91507fffffffffffffffffffffffffffffffffffffffffffffffffffffffffffffffff8203615552576155516154e6565b5b600182019050919050565b7f4e487b7100000000000000000000000000000000000000000000000000000000600052604160045260246000fd5b7f496e76616c6964206d696c6c6572206164647265737300000000000000000000600082015250565b60006155c2601683615316565b91506155cd8261558c565b602082019050919050565b600060208201905081810360008301526155f1816155b5565b9050919050565b600061560382614cd7565b915061560e83614cd7565b9250828201905080821115615626576156256154e6565b5b92915050565b7f4d696c6c65722061737369676e6d656e7420646561646c696e6520706173736560008201527f6400000000000000000000000000000000000000000000000000000000000000602082015250565b6000615688602183615316565b91506156938261562c565b604082019050919050565b600060208201905081810360008301526156b78161567b565b9050919050565b60006020820190506156d36000830184615127565b92915050565b7f5175616c697479204173736573736d656e7420646561646c696e65207061737360008201527f6564000000000000000000000000000000000000000000000000000000000000602082015250565b6000615735602283615316565b9150615740826156d9565b604082019050919050565b6000602082019050818103600083015261576481615728565b9050919050565b7f4f6e6c7920464349206f72204661726d657220636f6e74726163742063616e2060008201527f63616c6c20746869732066756e6374696f6e0000000000000000000000000000602082015250565b60006157c7603283615316565b91506157d28261576b565b604082019050919050565b600060208201905081810360008301526157f6816157ba565b9050919050565b7f4f6e6c79206661726d6572732063616e20637265617465206f72646572730000600082015250565b6000615833601e83615316565b915061583e826157fd565b602082019050919050565b6000602082019050818103600083015261586281615826565b9050919050565b7f5175616e74697479206d7573742062652067726561746572207468616e203000600082015250565b600061589f601f83615316565b91506158aa82615869565b602082019050919050565b600060208201905081810360008301526158ce81615892565b9050919050565b60008160601b9050919050565b60006158ed826158d5565b9050919050565b60006158ff826158e2565b9050919050565b61591761591282614c36565b6158f4565b82525050565b6000819050919050565b61593861593382614cd7565b61591d565b82525050565b600061594a8286615906565b60148201915061595a8285615906565b60148201915061596a8284615927565b602082019150819050949350505050565b60006080820190506159906000830187614ce1565b61599d6020830186614ce1565b6159aa6040830185615118565b6159b76060830184615127565b95945050505050565b7f5175616c697479206173736573736d656e7420646561646c696e65207061737360008201527f6564000000000000000000000000000000000000000000000000000000000000602082015250565b6000615a1c602283615316565b9150615a27826159c0565b604082019050919050565b60006020820190508181036000830152615a4b81615a0f565b9050919050565b7f4164647265737320616c72656164792072656769737465726564200000000000600082015250565b6000615a88601b83615316565b9150615a9382615a52565b602082019050919050565b60006020820190508181036000830152615ab781615a7b565b9050919050565b7f5175616c697479206173736573736d656e74206e6f7420636f6d706c65746564600082015250565b6000615af4602083615316565b9150615aff82615abe565b602082019050919050565b60006020820190508181036000830152615b2381615ae7565b9050919050565b7f5061796d656e7420616c726561647920636f6d706c6574656420666f7220746860008201527f6973206f72646572000000000000000000000000000000000000000000000000602082015250565b6000615b86602883615316565b9150615b9182615b2a565b604082019050919050565b60006020820190508181036000830152615bb581615b79565b9050919050565b6000615bc782614cd7565b9150615bd283614cd7565b9250828202615be081614cd7565b91508282048414831517615bf757615bf66154e6565b5b5092915050565b7f4e487b7100000000000000000000000000000000000000000000000000000000600052601260045260246000fd5b6000615c3882614cd7565b9150615c4383614cd7565b925082615c5357615c52615bfe565b5b828204905092915050565b7f496e76616c6964207175616c697479206173736573736d656e742076616c7565600082015250565b6000615c94602083615316565b9150615c9f82615c5e565b602082019050919050565b60006020820190508181036000830152615cc381615c87565b9050919050565b6000604082019050615cdf6000830185614ce1565b615cec6020830184615127565b9392505050565b7f5061796d656e7420616c726561647920636f6d706c6574656420666f7220746860008201527f6973206f72646572206f72206f72646572206e6f7420666f756e640000000000602082015250565b6000615d4f603b83615316565b9150615d5a82615cf3565b604082019050919050565b60006020820190508181036000830152615d7e81615d42565b9050919050565b7f44656c697665727920737461727420646561646c696e65207061737365640000600082015250565b6000615dbb601e83615316565b9150615dc682615d85565b602082019050919050565b60006020820190508181036000830152615dea81615dae565b9050919050565b6000615dfc82614cd7565b9150615e0783614cd7565b9250828203905081811115615e1f57615e1e6154e6565b5b92915050565b7f4f6e6c79206d696c6c6572732063616e2073657420746172676574207175616e60008201527f7469747900000000000000000000000000000000000000000000000000000000602082015250565b6000615e81602483615316565b9150615e8c82615e25565b604082019050919050565b60006020820190508181036000830152615eb081615e74565b9050919050565b7f4e487b7100000000000000000000000000000000000000000000000000000000600052605160045260246000fdfea264697066735822122003b1dedab06a6f9fba67b8709910db84f60d5f6eecf3a19eef7dcabe3d58072c64736f6c63430008180033",
  "linkReferences": {},
  "deployedLinkReferences": {}
}